{
  "transactions": [
    {
      "hash": "0xc895801f2f4d045f38813fa669ab04a531d60b09d72cb3465a8444dcf5097aaa",
      "transactionType": "CREATE",
      "contractName": "TokenTransferRelay",
      "contractAddress": "0xee3262db1961b9119d5ebfca2d4d2a4754f49882",
      "function": null,
      "arguments": [
        "0xa45E06d31D1ED8A0C9471a59665f38A78E79d480",
        "0x9E3CA1EdB50439a1d3fD4Bce071fA50cB48C7A1b",
        "0xe8e07D98F23AAe986eA0225B4f6d2333e79224E6",
        "0xe8e07D98F23AAe986eA0225B4f6d2333e79224E6",
        "0xe8e07D98F23AAe986eA0225B4f6d2333e79224E6"
      ],
      "transaction": {
        "from": "0x19173489fa86e042f323546174e74d791a36635e",
        "gas": "0x1cf1bb",
        "value": "0x0",
        "input": "0x608060405234801561001057600080fd5b506040516118ad3803806118ad83398101604081905261002f91610169565b600180546001600160a01b03199081166001600160a01b03888116919091179092556002805482168784161790556003805482168684161790556004805482168584161790556005805490911691831691909117905561009660006100913390565b6100a1565b5050505050506101ce565b6000828152602081815260408083206001600160a01b038516845290915281205460ff16610143576000838152602081815260408083206001600160a01b03861684529091529020805460ff191660011790556100fb3390565b6001600160a01b0316826001600160a01b0316847f2f8788117e7eff1d82e926ec794901d17c78024a50270940304540a733656f0d60405160405180910390a4506001610147565b5060005b92915050565b80516001600160a01b038116811461016457600080fd5b919050565b600080600080600060a0868803121561018157600080fd5b61018a8661014d565b94506101986020870161014d565b93506101a66040870161014d565b92506101b46060870161014d565b91506101c26080870161014d565b90509295509295909350565b6116d0806101dd6000396000f3fe6080604052600436106101b75760003560e01c806366032470116100ec578063b2f413901161008a578063d1caa0fd11610064578063d1caa0fd1461056e578063d547741f14610581578063ebb64592146105a1578063f5b541a6146105c157600080fd5b8063b2f4139014610501578063bcbb895a14610521578063cc46ad9b1461054e57600080fd5b80638d3818b1116100c65780638d3818b11461046457806391d148541461049857806395e7c814146104b8578063a217fddf146104ec57600080fd5b8063660324701461040457806379ff456d146104245780637f2a0b491461044457600080fd5b8063248a9ca31161015957806333c5eaca1161013357806333c5eaca1461038457806336568abe146103a4578063417baa1e146103c45780634299b2a0146103e457600080fd5b8063248a9ca3146102fc5780632f2ff15d1461032c578063334cc7ca1461034c57600080fd5b806314422eb81161019557806314422eb814610253578063150b7a02146102735780631dec5e07146102b857806323b7fc53146102da57600080fd5b806301ffc9a7146101bc57806303627581146101f15780630e68d08214610211575b600080fd5b3480156101c857600080fd5b506101dc6101d7366004611368565b6105f5565b60405190151581526020015b60405180910390f35b3480156101fd57600080fd5b506101dc61020c3660046113b5565b610620565b34801561021d57600080fd5b506102457f11d01c9b56cdb9581a12ba739ca796bc4781caeb130dfda587b45ce1f3420f3b81565b6040519081526020016101e8565b34801561025f57600080fd5b5061024561026e3660046113b5565b610688565b34801561027f57600080fd5b5061029f61028e3660046113e1565b630a85bd0160e11b95945050505050565b6040516001600160e01b031990911681526020016101e8565b3480156102c457600080fd5b5061024560008051602061167b83398151915281565b3480156102e657600080fd5b506102fa6102f53660046113b5565b6106d6565b005b34801561030857600080fd5b5061024561031736600461147c565b60009081526020819052604090206001015490565b34801561033857600080fd5b506102fa6103473660046113b5565b6108b1565b34801561035857600080fd5b5060055461036c906001600160a01b031681565b6040516001600160a01b0390911681526020016101e8565b34801561039057600080fd5b5060015461036c906001600160a01b031681565b3480156103b057600080fd5b506102fa6103bf3660046113b5565b6108dc565b3480156103d057600080fd5b5060045461036c906001600160a01b031681565b3480156103f057600080fd5b506102fa6103ff366004611495565b610914565b34801561041057600080fd5b506101dc61041f3660046113b5565b61094f565b34801561043057600080fd5b506102fa61043f3660046113b5565b610988565b34801561045057600080fd5b5060035461036c906001600160a01b031681565b34801561047057600080fd5b506102457f13b7232325d768be97bba0f97971bb57a3353dca49d348277d396291eeaca60481565b3480156104a457600080fd5b506101dc6104b33660046113b5565b6109bc565b3480156104c457600080fd5b506102457fa4dbb9b4158d444008ec40bb666acc21873cd771fbe533f61c6d9b6a6593289381565b3480156104f857600080fd5b50610245600081565b34801561050d57600080fd5b506102fa61051c366004611495565b6109e5565b34801561052d57600080fd5b5061054161053c3660046113b5565b610a20565b6040516101e891906114b0565b34801561055a57600080fd5b5060025461036c906001600160a01b031681565b6102fa61057c366004611535565b610b0c565b34801561058d57600080fd5b506102fa61059c3660046113b5565b610b19565b3480156105ad57600080fd5b506102fa6105bc366004611495565b610b3e565b3480156105cd57600080fd5b506102457f97667070c54ef182b0f5858b034beac1b6f3089aa2d3188bb1e8929f4fa9b92981565b60006001600160e01b03198216630a85bd0160e11b148061061a575061061a82610b79565b92915050565b60008061062d8484610a20565b6080015190507f11d01c9b56cdb9581a12ba739ca796bc4781caeb130dfda587b45ce1f3420f3b81148061068057507fa4dbb9b4158d444008ec40bb666acc21873cd771fbe533f61c6d9b6a6593289381145b949350505050565b600082826040516020016106b892919091825260601b6bffffffffffffffffffffffff1916602082015260340190565b60405160208183030381529060405280519060200120905092915050565b7f97667070c54ef182b0f5858b034beac1b6f3089aa2d3188bb1e8929f4fa9b92961070081610bae565b61070a838361094f565b61072f5760405162461bcd60e51b8152600401610726906115ba565b60405180910390fd5b60006006600061073f8686610688565b81526020810191909152604090810160009081207fa4dbb9b4158d444008ec40bb666acc21873cd771fbe533f61c6d9b6a65932893600482015580546001820154935191945091926001600160a01b0390921691908381818185875af1925050503d80600081146107cc576040519150601f19603f3d011682016040523d82523d6000602084013e6107d1565b606091505b50509050806107df57600080fd5b81546002830180546040805160208084028201810190925282815261084a9430946001600160a01b0390911693919290919083018282801561084057602002820191906000526020600020905b81548152602001906001019080831161082c575b5050505050610bbb565b815460038301546108689130916001600160a01b0390911690610c79565b604080518681526001600160a01b03861660208201527f8bb531857f15fff665cf1b3f8bc4007521a62ab4c5be4c439357ea0dedd1449191015b60405180910390a15050505050565b6000828152602081905260409020600101546108cc81610bae565b6108d68383610cbe565b50505050565b6001600160a01b03811633146109055760405163334bd91960e11b815260040160405180910390fd5b61090f8282610d50565b505050565b60008051602061167b83398151915261092c81610bae565b50600380546001600160a01b0319166001600160a01b0392909216919091179055565b60007f13b7232325d768be97bba0f97971bb57a3353dca49d348277d396291eeaca60461097c8484610a20565b60800151149392505050565b7f97667070c54ef182b0f5858b034beac1b6f3089aa2d3188bb1e8929f4fa9b9296109b281610bae565b61090f8383610dbb565b6000918252602082815260408084206001600160a01b0393909316845291905290205460ff1690565b60008051602061167b8339815191526109fd81610bae565b50600580546001600160a01b0319166001600160a01b0392909216919091179055565b610a5e6040518060a0016040528060006001600160a01b03168152602001600081526020016060815260200160008152602001600080191681525090565b60066000610a6c8585610688565b81526020808201929092526040908101600020815160a08101835281546001600160a01b03168152600182015481850152600282018054845181870281018701865281815292959394860193830182828015610ae757602002820191906000526020600020905b815481526020019060010190808311610ad3575b5050505050815260200160038201548152602001600482015481525050905092915050565b6108d68433858585610f68565b600082815260208190526040902060010154610b3481610bae565b6108d68383610d50565b60008051602061167b833981519152610b5681610bae565b50600480546001600160a01b0319166001600160a01b0392909216919091179055565b60006001600160e01b03198216637965db0b60e01b148061061a57506301ffc9a760e01b6001600160e01b031983161461061a565b610bb881336111c2565b50565b805160005b81811015610c725760015483516001600160a01b03909116906342842e0e9087908790879086908110610bf557610bf5611606565b60209081029190910101516040516001600160e01b031960e086901b1681526001600160a01b0393841660048201529290911660248301526044820152606401600060405180830381600087803b158015610c4f57600080fd5b505af1158015610c63573d6000803e3d6000fd5b50505050806001019050610bc0565b5050505050565b801561090f576001600160a01b0383163014610ca75760025461090f906001600160a01b03168484846111ff565b60025461090f906001600160a01b03168383611266565b6000610cca83836109bc565b610d48576000838152602081815260408083206001600160a01b03861684529091529020805460ff19166001179055610d003390565b6001600160a01b0316826001600160a01b0316847f2f8788117e7eff1d82e926ec794901d17c78024a50270940304540a733656f0d60405160405180910390a450600161061a565b50600061061a565b6000610d5c83836109bc565b15610d48576000838152602081815260408083206001600160a01b0386168085529252808320805460ff1916905551339286917ff6391f5c32d9c69d2a47ea670b442974b53935d1edc7fd64eb21e047a839171b9190a450600161061a565b610dc5828261094f565b610de15760405162461bcd60e51b8152600401610726906115ba565b600060066000610df18585610688565b81526020810191909152604090810160009081207f11d01c9b56cdb9581a12ba739ca796bc4781caeb130dfda587b45ce1f3420f3b60048201556003546001820154935191945091926001600160a01b0390921691908381818185875af1925050503d8060008114610e7f576040519150601f19603f3d011682016040523d82523d6000602084013e610e84565b606091505b5050905080610e9257600080fd5b610f0230600460009054906101000a90046001600160a01b031684600201805480602002602001604051908101604052809291908181526020018280548015610840576020028201919060005260206000209081548152602001906001019080831161082c575050505050610bbb565b6005546003830154610f219130916001600160a01b0390911690610c79565b604080518581526001600160a01b03851660208201527f9dc31a4ea4a02e674abbe06620f541360e032c6c662c006e8a73b6cc082fc8ec910160405180910390a150505050565b610f72858561094f565b15610fd55760405162461bcd60e51b815260206004820152602d60248201527f546f6b656e5472616e7366657252656c61793a205472616e7366657220616c7260448201526c1958591e481c995cd95c9d9959609a1b6064820152608401610726565b610fdf8585610620565b156110435760405162461bcd60e51b815260206004820152602e60248201527f546f6b656e5472616e7366657252656c61793a205472616e7366657220616c7260448201526d1958591e481c1c9bd8d95cdcd95960921b6064820152608401610726565b6040518060a00160405280856001600160a01b031681526020013481526020018484808060200260200160405190810160405280939291908181526020018383602002808284376000920182905250938552505050602082018490527f13b7232325d768be97bba0f97971bb57a3353dca49d348277d396291eeaca6046040909201919091526006906110d68888610688565b81526020808201929092526040908101600020835181546001600160a01b0319166001600160a01b03909116178155838301516001820155908301518051919261112892600285019290910190611308565b50606082015181600301556080820151816004015590505061117e8430858580806020026020016040519081016040528093929190818152602001838360200280828437600092019190915250610bbb92505050565b611189843083610c79565b7ff2282361aca83d95466adb4d7eed753bd27b1f05a801288b13bb828e5f2637e88585348686866040516108a29695949392919061161c565b6111cc82826109bc565b6111fb5760405163e2517d3f60e01b81526001600160a01b038216600482015260248101839052604401610726565b5050565b6040516001600160a01b0384811660248301528381166044830152606482018390526108d69186918216906323b872dd906084015b604051602081830303815290604052915060e01b6020820180516001600160e01b038381831617835250505050611297565b6040516001600160a01b0383811660248301526044820183905261090f91859182169063a9059cbb90606401611234565b600080602060008451602086016000885af1806112ba576040513d6000823e3d81fd5b50506000513d915081156112d25780600114156112df565b6001600160a01b0384163b155b156108d657604051635274afe760e01b81526001600160a01b0385166004820152602401610726565b828054828255906000526020600020908101928215611343579160200282015b82811115611343578251825591602001919060010190611328565b5061134f929150611353565b5090565b5b8082111561134f5760008155600101611354565b60006020828403121561137a57600080fd5b81356001600160e01b03198116811461139257600080fd5b9392505050565b80356001600160a01b03811681146113b057600080fd5b919050565b600080604083850312156113c857600080fd5b823591506113d860208401611399565b90509250929050565b6000806000806000608086880312156113f957600080fd5b61140286611399565b945061141060208701611399565b935060408601359250606086013567ffffffffffffffff8082111561143457600080fd5b818801915088601f83011261144857600080fd5b81358181111561145757600080fd5b89602082850101111561146957600080fd5b9699959850939650602001949392505050565b60006020828403121561148e57600080fd5b5035919050565b6000602082840312156114a757600080fd5b61139282611399565b602080825282516001600160a01b0316828201528281015160408084019190915283015160a06060840152805160c0840181905260009291820190839060e08601905b8083101561151357835182529284019260019290920191908401906114f3565b5060608701516080870152608087015160a08701528094505050505092915050565b6000806000806060858703121561154b57600080fd5b84359350602085013567ffffffffffffffff8082111561156a57600080fd5b818701915087601f83011261157e57600080fd5b81358181111561158d57600080fd5b8860208260051b85010111156115a257600080fd5b95986020929092019750949560400135945092505050565b6020808252602c908201527f546f6b656e5472616e7366657252656c61793a205472616e736665722069732060408201526b1b9bdd081c995cd95c9d995960a21b606082015260800190565b634e487b7160e01b600052603260045260246000fd5b8681526001600160a01b03861660208201526040810185905260a060608201819052810183905260006001600160fb1b0384111561165957600080fd5b8360051b808660c08501376080830193909352500160c0019594505050505056feb06fd1d7ac3cc9ad93e77413fab9fcd3bbd887f5685e519e34e0e80802d074eea264697066735822122048606373a38f20f48a5d5065e91ef0b050be5e3d001c6258943bf76d05af4a8e64736f6c63430008190033000000000000000000000000a45e06d31d1ed8a0c9471a59665f38a78e79d4800000000000000000000000009e3ca1edb50439a1d3fd4bce071fa50cb48c7a1b000000000000000000000000e8e07d98f23aae986ea0225b4f6d2333e79224e6000000000000000000000000e8e07d98f23aae986ea0225b4f6d2333e79224e6000000000000000000000000e8e07d98f23aae986ea0225b4f6d2333e79224e6",
        "nonce": "0x14",
        "chainId": "0x14a34"
      },
      "additionalContracts": [],
      "isFixedGasLimit": false
    },
    {
      "hash": "0x896067e90917dd754b0094dffecc81d166a353c94e0d3f9a5823293b3af45bf1",
      "transactionType": "CALL",
      "contractName": "TokenTransferRelay",
      "contractAddress": "0xee3262db1961b9119d5ebfca2d4d2a4754f49882",
      "function": "grantRole(bytes32,address)",
      "arguments": [
        "0x0000000000000000000000000000000000000000000000000000000000000000",
        "0xAD5833fe40E01c1b9997746Aa47D7cFa8bb01E72"
      ],
      "transaction": {
        "from": "0x19173489fa86e042f323546174e74d791a36635e",
        "to": "0xee3262db1961b9119d5ebfca2d4d2a4754f49882",
        "gas": "0x1241a",
        "value": "0x0",
        "input": "0x2f2ff15d0000000000000000000000000000000000000000000000000000000000000000000000000000000000000000ad5833fe40e01c1b9997746aa47d7cfa8bb01e72",
        "nonce": "0x15",
        "chainId": "0x14a34"
      },
      "additionalContracts": [],
      "isFixedGasLimit": false
    },
    {
      "hash": "0xf9731fae7e58bc1e018dc75969a119a40996f8e11d0912fe1aac2612c6ec0f7e",
      "transactionType": "CALL",
      "contractName": "TokenTransferRelay",
      "contractAddress": "0xee3262db1961b9119d5ebfca2d4d2a4754f49882",
      "function": "grantRole(bytes32,address)",
      "arguments": [
        "0xb06fd1d7ac3cc9ad93e77413fab9fcd3bbd887f5685e519e34e0e80802d074ee",
        "0xAD5833fe40E01c1b9997746Aa47D7cFa8bb01E72"
      ],
      "transaction": {
        "from": "0x19173489fa86e042f323546174e74d791a36635e",
        "to": "0xee3262db1961b9119d5ebfca2d4d2a4754f49882",
        "gas": "0x1264c",
        "value": "0x0",
        "input": "0x2f2ff15db06fd1d7ac3cc9ad93e77413fab9fcd3bbd887f5685e519e34e0e80802d074ee000000000000000000000000ad5833fe40e01c1b9997746aa47d7cfa8bb01e72",
        "nonce": "0x16",
        "chainId": "0x14a34"
      },
      "additionalContracts": [],
      "isFixedGasLimit": false
    },
    {
      "hash": "0x176e83fb7b9eaa93380757c77479b1b82f784313ff3078b78661c00e36d3c6a3",
      "transactionType": "CALL",
      "contractName": "TokenTransferRelay",
      "contractAddress": "0xee3262db1961b9119d5ebfca2d4d2a4754f49882",
      "function": "grantRole(bytes32,address)",
      "arguments": [
        "0x97667070c54ef182b0f5858b034beac1b6f3089aa2d3188bb1e8929f4fa9b929",
        "0xe876b5EC9be3f67F3947D64c4Ebc8ac1D005C90B"
      ],
      "transaction": {
        "from": "0x19173489fa86e042f323546174e74d791a36635e",
        "to": "0xee3262db1961b9119d5ebfca2d4d2a4754f49882",
        "gas": "0x1264c",
        "value": "0x0",
        "input": "0x2f2ff15d97667070c54ef182b0f5858b034beac1b6f3089aa2d3188bb1e8929f4fa9b929000000000000000000000000e876b5ec9be3f67f3947d64c4ebc8ac1d005c90b",
        "nonce": "0x17",
        "chainId": "0x14a34"
      },
      "additionalContracts": [],
      "isFixedGasLimit": false
    },
    {
      "hash": "0x8facfcbfc02937fb39805b690db67b7646a399a8bc4d2e13b33b72e5f24857d5",
      "transactionType": "CALL",
      "contractName": "TokenTransferRelay",
      "contractAddress": "0xee3262db1961b9119d5ebfca2d4d2a4754f49882",
      "function": "revokeRole(bytes32,address)",
      "arguments": [
        "0x0000000000000000000000000000000000000000000000000000000000000000",
        "0x19173489Fa86e042F323546174e74D791A36635E"
      ],
      "transaction": {
        "from": "0x19173489fa86e042f323546174e74d791a36635e",
        "to": "0xee3262db1961b9119d5ebfca2d4d2a4754f49882",
        "gas": "0x9291",
        "value": "0x0",
        "input": "0xd547741f000000000000000000000000000000000000000000000000000000000000000000000000000000000000000019173489fa86e042f323546174e74d791a36635e",
        "nonce": "0x18",
        "chainId": "0x14a34"
      },
      "additionalContracts": [],
      "isFixedGasLimit": false
    }
  ],
  "receipts": [
    {
      "status": "0x1",
      "cumulativeGasUsed": "0x19751f",
      "logs": [
        {
          "address": "0xee3262db1961b9119d5ebfca2d4d2a4754f49882",
          "topics": [
            "0x2f8788117e7eff1d82e926ec794901d17c78024a50270940304540a733656f0d",
            "0x0000000000000000000000000000000000000000000000000000000000000000",
            "0x00000000000000000000000019173489fa86e042f323546174e74d791a36635e",
            "0x00000000000000000000000019173489fa86e042f323546174e74d791a36635e"
          ],
          "data": "0x",
          "blockHash": "0x5b01c3a47009f9b90e1dd49c0b9d2eb09d77066a5c06f5e7a9183110f756e46d",
          "blockNumber": "0x114186a",
          "transactionHash": "0xc895801f2f4d045f38813fa669ab04a531d60b09d72cb3465a8444dcf5097aaa",
          "transactionIndex": "0x5",
          "logIndex": "0x1",
          "removed": false
        }
      ],
      "logsBloom": "0x00000004000000000000000000000000000000000000000000000000000000000000000000000000000000000000000000000000000000000000000000000000000000000000000000000000000000000000000000000000000000000000000000000000020000000000000000000800000000000000000000000000080000000000000000000000000000000000000000020000000000000000000000000008000000000000000000000000000000800000000000000000001000000000000000000000000000000000000000000000000000000000000100000000000020000000000000000000000000000000000000000000000000000000000000801000",
      "type": "0x2",
      "transactionHash": "0xc895801f2f4d045f38813fa669ab04a531d60b09d72cb3465a8444dcf5097aaa",
      "transactionIndex": "0x5",
      "blockHash": "0x5b01c3a47009f9b90e1dd49c0b9d2eb09d77066a5c06f5e7a9183110f756e46d",
      "blockNumber": "0x114186a",
      "gasUsed": "0x164561",
      "effectiveGasPrice": "0x8657f",
      "from": "0x19173489fa86e042f323546174e74d791a36635e",
      "to": null,
      "contractAddress": "0xee3262db1961b9119d5ebfca2d4d2a4754f49882",
      "l1BaseFeeScalar": "0x44d",
      "l1BlobBaseFee": "0x2",
      "l1BlobBaseFeeScalar": "0xa118b",
      "l1Fee": "0x1a80980c",
      "l1GasPrice": "0x6ac5ad",
      "l1GasUsed": "0xe171"
    },
    {
      "status": "0x1",
      "cumulativeGasUsed": "0x1a3cda",
      "logs": [
        {
          "address": "0xee3262db1961b9119d5ebfca2d4d2a4754f49882",
          "topics": [
            "0x2f8788117e7eff1d82e926ec794901d17c78024a50270940304540a733656f0d",
            "0x0000000000000000000000000000000000000000000000000000000000000000",
            "0x000000000000000000000000ad5833fe40e01c1b9997746aa47d7cfa8bb01e72",
            "0x00000000000000000000000019173489fa86e042f323546174e74d791a36635e"
          ],
          "data": "0x",
          "blockHash": "0x5b01c3a47009f9b90e1dd49c0b9d2eb09d77066a5c06f5e7a9183110f756e46d",
          "blockNumber": "0x114186a",
          "transactionHash": "0x896067e90917dd754b0094dffecc81d166a353c94e0d3f9a5823293b3af45bf1",
          "transactionIndex": "0x6",
          "logIndex": "0x2",
          "removed": false
        }
      ],
      "logsBloom": "0x00000004000000000000000000000000000000000000000000000000000000000000000000000000000000000000000008000000000000000000000000000000000000000000000000000000000000000000000000000000000000000000000000000000020000000000000000000800000000000000000000000000080000000000000000000000000000000000000000020000000000000000000000000048000000010000000000000000000000800000000000000000001000000000000000000000000000000000000000000000000000000000000100000000000020000000000000000000000000000000000000000000000000000000000000801000",
      "type": "0x2",
      "transactionHash": "0x896067e90917dd754b0094dffecc81d166a353c94e0d3f9a5823293b3af45bf1",
      "transactionIndex": "0x6",
      "blockHash": "0x5b01c3a47009f9b90e1dd49c0b9d2eb09d77066a5c06f5e7a9183110f756e46d",
      "blockNumber": "0x114186a",
      "gasUsed": "0xc7bb",
      "effectiveGasPrice": "0x8657f",
      "from": "0x19173489fa86e042f323546174e74d791a36635e",
      "to": "0xee3262db1961b9119d5ebfca2d4d2a4754f49882",
      "contractAddress": null,
      "l1BaseFeeScalar": "0x44d",
      "l1BlobBaseFee": "0x2",
      "l1BlobBaseFeeScalar": "0xa118b",
      "l1Fee": "0xbc1784",
      "l1GasPrice": "0x6ac5ad",
      "l1GasUsed": "0x640"
    },
    {
      "status": "0x1",
      "cumulativeGasUsed": "0x1b0615",
      "logs": [
        {
          "address": "0xee3262db1961b9119d5ebfca2d4d2a4754f49882",
          "topics": [
            "0x2f8788117e7eff1d82e926ec794901d17c78024a50270940304540a733656f0d",
            "0xb06fd1d7ac3cc9ad93e77413fab9fcd3bbd887f5685e519e34e0e80802d074ee",
            "0x000000000000000000000000ad5833fe40e01c1b9997746aa47d7cfa8bb01e72",
            "0x00000000000000000000000019173489fa86e042f323546174e74d791a36635e"
          ],
          "data": "0x",
          "blockHash": "0x5b01c3a47009f9b90e1dd49c0b9d2eb09d77066a5c06f5e7a9183110f756e46d",
          "blockNumber": "0x114186a",
          "transactionHash": "0xf9731fae7e58bc1e018dc75969a119a40996f8e11d0912fe1aac2612c6ec0f7e",
          "transactionIndex": "0x7",
          "logIndex": "0x3",
          "removed": false
        }
      ],
      "logsBloom": "0x00000004000000000000000000000000000000000000000000000000000000000000000000000000000000000000000008000000000000000000000000000000000000000000000000000000000000000000000000000000000000000000000000000000000000000000000000000000000000000000000000000000080000000000020000000000000000000000000000020000000000000000000040000048000000010000000000000000000000800000000000000000001000000000000000000000000000000000000000000000000000000000000100000000000000000000000000000000000000000000000000000000000000000000010000801000",
      "type": "0x2",
      "transactionHash": "0xf9731fae7e58bc1e018dc75969a119a40996f8e11d0912fe1aac2612c6ec0f7e",
      "transactionIndex": "0x7",
      "blockHash": "0x5b01c3a47009f9b90e1dd49c0b9d2eb09d77066a5c06f5e7a9183110f756e46d",
      "blockNumber": "0x114186a",
      "gasUsed": "0xc93b",
      "effectiveGasPrice": "0x8657f",
      "from": "0x19173489fa86e042f323546174e74d791a36635e",
      "to": "0xee3262db1961b9119d5ebfca2d4d2a4754f49882",
      "contractAddress": null,
      "l1BaseFeeScalar": "0x44d",
      "l1BlobBaseFee": "0x2",
      "l1BlobBaseFeeScalar": "0xa118b",
      "l1Fee": "0xc7f68d",
      "l1GasPrice": "0x6ac5ad",
      "l1GasUsed": "0x6a4"
    },
    {
      "status": "0x1",
      "cumulativeGasUsed": "0x1bcf50",
      "logs": [
        {
          "address": "0xee3262db1961b9119d5ebfca2d4d2a4754f49882",
          "topics": [
            "0x2f8788117e7eff1d82e926ec794901d17c78024a50270940304540a733656f0d",
            "0x97667070c54ef182b0f5858b034beac1b6f3089aa2d3188bb1e8929f4fa9b929",
            "0x000000000000000000000000e876b5ec9be3f67f3947d64c4ebc8ac1d005c90b",
            "0x00000000000000000000000019173489fa86e042f323546174e74d791a36635e"
          ],
          "data": "0x",
          "blockHash": "0x5b01c3a47009f9b90e1dd49c0b9d2eb09d77066a5c06f5e7a9183110f756e46d",
          "blockNumber": "0x114186a",
          "transactionHash": "0x176e83fb7b9eaa93380757c77479b1b82f784313ff3078b78661c00e36d3c6a3",
          "transactionIndex": "0x8",
          "logIndex": "0x4",
          "removed": false
        }
      ],
      "logsBloom": "0x00000004000000000000000000000000200000000000000000000000000000000200000000000000000000000000000000000000000000000000000000000000000000000000000000000000010000000002000000000000000000000000000000008000000000000000000000000000000000000000000000000000080000000000000000000000000000000000000000020000000000000000000000000008000000000000000000000000000000800000000000008000001000000000000000000000000000000000000000000000000000000000000100000000000000000000000000000000000000000000000000000000000000000000000000801000",
      "type": "0x2",
      "transactionHash": "0x176e83fb7b9eaa93380757c77479b1b82f784313ff3078b78661c00e36d3c6a3",
      "transactionIndex": "0x8",
      "blockHash": "0x5b01c3a47009f9b90e1dd49c0b9d2eb09d77066a5c06f5e7a9183110f756e46d",
      "blockNumber": "0x114186a",
      "gasUsed": "0xc93b",
      "effectiveGasPrice": "0x8657f",
      "from": "0x19173489fa86e042f323546174e74d791a36635e",
      "to": "0xee3262db1961b9119d5ebfca2d4d2a4754f49882",
      "contractAddress": null,
      "l1BaseFeeScalar": "0x44d",
      "l1BlobBaseFee": "0x2",
      "l1BlobBaseFeeScalar": "0xa118b",
      "l1Fee": "0xc7f68d",
      "l1GasPrice": "0x6ac5ad",
      "l1GasUsed": "0x6a4"
    },
    {
      "status": "0x1",
      "cumulativeGasUsed": "0x1c396e",
      "logs": [
        {
          "address": "0xee3262db1961b9119d5ebfca2d4d2a4754f49882",
          "topics": [
            "0xf6391f5c32d9c69d2a47ea670b442974b53935d1edc7fd64eb21e047a839171b",
            "0x0000000000000000000000000000000000000000000000000000000000000000",
            "0x00000000000000000000000019173489fa86e042f323546174e74d791a36635e",
            "0x00000000000000000000000019173489fa86e042f323546174e74d791a36635e"
          ],
          "data": "0x",
          "blockHash": "0x5b01c3a47009f9b90e1dd49c0b9d2eb09d77066a5c06f5e7a9183110f756e46d",
          "blockNumber": "0x114186a",
          "transactionHash": "0x8facfcbfc02937fb39805b690db67b7646a399a8bc4d2e13b33b72e5f24857d5",
          "transactionIndex": "0x9",
          "logIndex": "0x5",
          "removed": false
        }
      ],
      "logsBloom": "0x00000000000000000000000000000000000000000000000000000000000000000000000000000000000000000000000000200000000000000000000000000000000000000000000000000000000000000000000000000000000000000000000040000000020000000000000000000800000000000000000000000000080000000000000040000000000000000000000000020000000000000000000000000008000000000000000000000000000000800000000000000000000000000000000000000000000000000000000000000000000000000000000000000000000020000000000000000000000000000000000000000000000000000000000000801000",
      "type": "0x2",
      "transactionHash": "0x8facfcbfc02937fb39805b690db67b7646a399a8bc4d2e13b33b72e5f24857d5",
      "transactionIndex": "0x9",
      "blockHash": "0x5b01c3a47009f9b90e1dd49c0b9d2eb09d77066a5c06f5e7a9183110f756e46d",
      "blockNumber": "0x114186a",
      "gasUsed": "0x6a1e",
      "effectiveGasPrice": "0x8657f",
      "from": "0x19173489fa86e042f323546174e74d791a36635e",
      "to": "0xee3262db1961b9119d5ebfca2d4d2a4754f49882",
      "contractAddress": null,
      "l1BaseFeeScalar": "0x44d",
      "l1BlobBaseFee": "0x2",
      "l1BlobBaseFeeScalar": "0xa118b",
      "l1Fee": "0xbc1784",
      "l1GasPrice": "0x6ac5ad",
      "l1GasUsed": "0x640"
    }
  ],
  "libraries": [],
  "pending": [],
  "returns": {},
  "timestamp": 1731956693,
  "chain": 84532,
  "commit": "a2764de"
}