{
  "transactions": [
    {
      "hash": "0x070e1d58205a19b75ab69c047da30892f841e9e79a4da3e0ceaea8bf2b136d73",
      "transactionType": "CREATE",
      "contractName": "NFT",
      "contractAddress": "0xa45e06d31d1ed8a0c9471a59665f38a78e79d480",
      "function": null,
      "arguments": [
        "0",
        "Fantasy Madness",
        "FM"
      ],
      "transaction": {
        "from": "0x19173489fa86e042f323546174e74d791a36635e",
        "gas": "0x1d957e",
        "value": "0x0",
        "input": "0x608060405234801561001057600080fd5b50604051611c01380380611c0183398101604081905261002f916101da565b6001805460ff191690558181600261004783826102d2565b50600361005482826102d2565b5050506008839055610067600033610070565b50505050610391565b6000828152602081815260408083206001600160a01b038516845290915281205460ff16610112576000838152602081815260408083206001600160a01b03861684529091529020805460ff191660011790556100ca3390565b6001600160a01b0316826001600160a01b0316847f2f8788117e7eff1d82e926ec794901d17c78024a50270940304540a733656f0d60405160405180910390a4506001610116565b5060005b92915050565b634e487b7160e01b600052604160045260246000fd5b600082601f83011261014357600080fd5b81516001600160401b038082111561015d5761015d61011c565b604051601f8301601f19908116603f011681019082821181831017156101855761018561011c565b81604052838152602092508660208588010111156101a257600080fd5b600091505b838210156101c457858201830151818301840152908201906101a7565b6000602085830101528094505050505092915050565b6000806000606084860312156101ef57600080fd5b835160208501519093506001600160401b038082111561020e57600080fd5b61021a87838801610132565b9350604086015191508082111561023057600080fd5b5061023d86828701610132565b9150509250925092565b600181811c9082168061025b57607f821691505b60208210810361027b57634e487b7160e01b600052602260045260246000fd5b50919050565b601f8211156102cd576000816000526020600020601f850160051c810160208610156102aa5750805b601f850160051c820191505b818110156102c9578281556001016102b6565b5050505b505050565b81516001600160401b038111156102eb576102eb61011c565b6102ff816102f98454610247565b84610281565b602080601f831160018114610334576000841561031c5750858301515b600019600386901b1c1916600185901b1785556102c9565b600085815260208120601f198616915b8281101561036357888601518255948401946001909101908401610344565b50858210156103815787850151600019600388901b60f8161c191681555b5050505050600190811b01905550565b611861806103a06000396000f3fe608060405234801561001057600080fd5b50600436106101a95760003560e01c80635c975abb116100f9578063a22cb46511610097578063d547741f11610071578063d547741f1461037e578063e63ab1e914610391578063e985e9c5146103b8578063e9a9c850146103cb57600080fd5b8063a22cb46514610345578063b88d4fde14610358578063c87b56dd1461036b57600080fd5b80638456cb59116100d35780638456cb591461031a57806391d148541461032257806395d89b4114610335578063a217fddf1461033d57600080fd5b80635c975abb146102e95780636352211e146102f457806370a082311461030757600080fd5b8063248a9ca3116101665780633f4ba83a116101405780633f4ba83a146102a857806340d097c3146102b057806342842e0e146102c357806355f804b3146102d657600080fd5b8063248a9ca3146102515780632f2ff15d1461028257806336568abe1461029557600080fd5b806301ffc9a7146101ae57806306fdde03146101d6578063081812fc146101eb578063095ea7b3146102165780630a724cf01461022b57806323b872dd1461023e575b600080fd5b6101c16101bc3660046111ed565b6103f2565b60405190151581526020015b60405180910390f35b6101de610412565b6040516101cd9190611261565b6101fe6101f9366004611274565b6104a4565b6040516001600160a01b0390911681526020016101cd565b6102296102243660046112a9565b6104cd565b005b61022961023936600461131a565b6104dc565b61022961024c3660046113c7565b610543565b61027461025f366004611274565b60009081526020819052604090206001015490565b6040519081526020016101cd565b610229610290366004611403565b6105cd565b6102296102a3366004611403565b6105f2565b61022961062a565b6102296102be36600461142f565b61065f565b6102296102d13660046113c7565b6106aa565b6102296102e43660046114a2565b6106c5565b60015460ff166101c1565b6101fe610302366004611274565b6106dc565b61027461031536600461142f565b6106e7565b61022961072f565b6101c1610330366004611403565b610761565b6101de61078a565b610274600081565b6102296103533660046114eb565b610799565b610229610366366004611527565b6107a4565b6101de610379366004611274565b6107bc565b61022961038c366004611403565b610802565b6102747f65d7a28e3265b37a6474929f336521b332c1681b933f6cb9f3376673440d862a81565b6101c16103c63660046115a3565b610827565b6102747f154c00819833dac601ee5ddded6fda79d9d8b506b911b3dbd54cdb95fe6c368681565b60006103fd82610855565b8061040c575061040c82610890565b92915050565b606060028054610421906115cd565b80601f016020809104026020016040519081016040528092919081815260200182805461044d906115cd565b801561049a5780601f1061046f5761010080835404028352916020019161049a565b820191906000526020600020905b81548152906001019060200180831161047d57829003601f168201915b5050505050905090565b60006104af826108c5565b506000828152600660205260409020546001600160a01b031661040c565b6104d88282336108fe565b5050565b7f154c00819833dac601ee5ddded6fda79d9d8b506b911b3dbd54cdb95fe6c36866105068161090b565b815160005b8181101561053d5761053584828151811061052857610528611607565b602002602001015161065f565b60010161050b565b50505050565b6001600160a01b03821661057257604051633250574960e11b8152600060048201526024015b60405180910390fd5b600061057f838333610915565b9050836001600160a01b0316816001600160a01b03161461053d576040516364283d7b60e01b81526001600160a01b0380861660048301526024820184905282166044820152606401610569565b6000828152602081905260409020600101546105e88161090b565b61053d8383610a0e565b6001600160a01b038116331461061b5760405163334bd91960e11b815260040160405180910390fd5b6106258282610aa0565b505050565b7f65d7a28e3265b37a6474929f336521b332c1681b933f6cb9f3376673440d862a6106548161090b565b61065c610b0b565b50565b7f154c00819833dac601ee5ddded6fda79d9d8b506b911b3dbd54cdb95fe6c36866106898161090b565b6008805490600061069983611633565b91905055506104d882600854610b5d565b610625838383604051806020016040528060008152506107a4565b60006106d08161090b565b60096106258382611694565b600061040c826108c5565b60006001600160a01b038216610713576040516322718ad960e21b815260006004820152602401610569565b506001600160a01b031660009081526005602052604090205490565b7f65d7a28e3265b37a6474929f336521b332c1681b933f6cb9f3376673440d862a6107598161090b565b61065c610b77565b6000918252602082815260408084206001600160a01b0393909316845291905290205460ff1690565b606060038054610421906115cd565b6104d8338383610bb2565b6107af848484610543565b61053d3385858585610c51565b60606107c7826108c5565b506107d0610d7c565b6107db836020610d8b565b6040516020016107ec929190611754565b6040516020818303038152906040529050919050565b60008281526020819052604090206001015461081d8161090b565b61053d8383610aa0565b6001600160a01b03918216600090815260076020908152604080832093909416825291909152205460ff1690565b60006001600160e01b031982166380ac58cd60e01b14806103fd57506001600160e01b03198216635b5e139f60e01b148061040c575061040c825b60006001600160e01b03198216637965db0b60e01b148061040c57506301ffc9a760e01b6001600160e01b031983161461040c565b6000818152600460205260408120546001600160a01b03168061040c57604051637e27328960e01b815260048101849052602401610569565b6106258383836001610f0b565b61065c8133611011565b6000828152600460205260408120546001600160a01b03908116908316156109425761094281848661104a565b6001600160a01b038116156109805761095f600085600080610f0b565b6001600160a01b038116600090815260056020526040902080546000190190555b6001600160a01b038516156109af576001600160a01b0385166000908152600560205260409020805460010190555b60008481526004602052604080822080546001600160a01b0319166001600160a01b0389811691821790925591518793918516917fddf252ad1be2c89b69c2b068fc378daa952ba7f163c4a11628f55a4df523b3ef91a4949350505050565b6000610a1a8383610761565b610a98576000838152602081815260408083206001600160a01b03861684529091529020805460ff19166001179055610a503390565b6001600160a01b0316826001600160a01b0316847f2f8788117e7eff1d82e926ec794901d17c78024a50270940304540a733656f0d60405160405180910390a450600161040c565b50600061040c565b6000610aac8383610761565b15610a98576000838152602081815260408083206001600160a01b0386168085529252808320805460ff1916905551339286917ff6391f5c32d9c69d2a47ea670b442974b53935d1edc7fd64eb21e047a839171b9190a450600161040c565b610b136110ae565b6001805460ff191690557f5db9ee0a495bf2e6ff9c91a7834c1ba4fdd244a5e8aa4e537bd38aeae4b073aa335b6040516001600160a01b03909116815260200160405180910390a1565b6104d88282604051806020016040528060008152506110d3565b610b7f6110eb565b6001805460ff1916811790557f62e78cea01bee320cd4e420270b5ea74000d11b0c9f74754ebdbfc544b05a25833610b40565b6001600160a01b038216610be457604051630b61174360e31b81526001600160a01b0383166004820152602401610569565b6001600160a01b03838116600081815260076020908152604080832094871680845294825291829020805460ff191686151590811790915591519182527f17307eab39ab6107e8899845ad3d59bd9653f200f220920489ca2b5937696c31910160405180910390a3505050565b6001600160a01b0383163b15610d7557604051630a85bd0160e11b81526001600160a01b0384169063150b7a0290610c93908890889087908790600401611790565b6020604051808303816000875af1925050508015610cce575060408051601f3d908101601f19168201909252610ccb918101906117cd565b60015b610d37573d808015610cfc576040519150601f19603f3d011682016040523d82523d6000602084013e610d01565b606091505b508051600003610d2f57604051633250574960e11b81526001600160a01b0385166004820152602401610569565b805181602001fd5b6001600160e01b03198116630a85bd0160e11b14610d7357604051633250574960e11b81526001600160a01b0385166004820152602401610569565b505b5050505050565b606060098054610421906115cd565b6060826000610d9b8460026117ea565b610da6906002611801565b67ffffffffffffffff811115610dbe57610dbe6112d3565b6040519080825280601f01601f191660200182016040528015610de8576020820181803683370190505b509050600360fc1b81600081518110610e0357610e03611607565b60200101906001600160f81b031916908160001a905350600f60fb1b81600181518110610e3257610e32611607565b60200101906001600160f81b031916908160001a9053506000610e568560026117ea565b610e61906001611801565b90505b6001811115610ed9576f181899199a1a9b1b9c1cb0b131b232b360811b83600f1660108110610e9557610e95611607565b1a60f81b828281518110610eab57610eab611607565b60200101906001600160f81b031916908160001a90535060049290921c91610ed281611814565b9050610e64565b508115610f035760405163e22e27eb60e01b81526004810186905260248101859052604401610569565b949350505050565b8080610f1f57506001600160a01b03821615155b15610fe1576000610f2f846108c5565b90506001600160a01b03831615801590610f5b5750826001600160a01b0316816001600160a01b031614155b8015610f6e5750610f6c8184610827565b155b15610f975760405163a9fbf51f60e01b81526001600160a01b0384166004820152602401610569565b8115610fdf5783856001600160a01b0316826001600160a01b03167f8c5be1e5ebec7d5bd14f71427d1e84f3dd0314c0f7b2291e5b200ac8c7c3b92560405160405180910390a45b505b5050600090815260066020526040902080546001600160a01b0319166001600160a01b0392909216919091179055565b61101b8282610761565b6104d85760405163e2517d3f60e01b81526001600160a01b038216600482015260248101839052604401610569565b61105583838361110f565b610625576001600160a01b03831661108357604051637e27328960e01b815260048101829052602401610569565b60405163177e802f60e01b81526001600160a01b038316600482015260248101829052604401610569565b60015460ff166110d157604051638dfc202b60e01b815260040160405180910390fd5b565b6110dd8383611172565b610625336000858585610c51565b60015460ff16156110d15760405163d93c066560e01b815260040160405180910390fd5b60006001600160a01b03831615801590610f035750826001600160a01b0316846001600160a01b0316148061114957506111498484610827565b80610f035750506000908152600660205260409020546001600160a01b03908116911614919050565b6001600160a01b03821661119c57604051633250574960e11b815260006004820152602401610569565b60006111aa83836000610915565b90506001600160a01b03811615610625576040516339e3563760e11b815260006004820152602401610569565b6001600160e01b03198116811461065c57600080fd5b6000602082840312156111ff57600080fd5b813561120a816111d7565b9392505050565b60005b8381101561122c578181015183820152602001611214565b50506000910152565b6000815180845261124d816020860160208601611211565b601f01601f19169290920160200192915050565b60208152600061120a6020830184611235565b60006020828403121561128657600080fd5b5035919050565b80356001600160a01b03811681146112a457600080fd5b919050565b600080604083850312156112bc57600080fd5b6112c58361128d565b946020939093013593505050565b634e487b7160e01b600052604160045260246000fd5b604051601f8201601f1916810167ffffffffffffffff81118282101715611312576113126112d3565b604052919050565b6000602080838503121561132d57600080fd5b823567ffffffffffffffff8082111561134557600080fd5b818501915085601f83011261135957600080fd5b81358181111561136b5761136b6112d3565b8060051b915061137c8483016112e9565b818152918301840191848101908884111561139657600080fd5b938501935b838510156113bb576113ac8561128d565b8252938501939085019061139b565b98975050505050505050565b6000806000606084860312156113dc57600080fd5b6113e58461128d565b92506113f36020850161128d565b9150604084013590509250925092565b6000806040838503121561141657600080fd5b823591506114266020840161128d565b90509250929050565b60006020828403121561144157600080fd5b61120a8261128d565b600067ffffffffffffffff831115611464576114646112d3565b611477601f8401601f19166020016112e9565b905082815283838301111561148b57600080fd5b828260208301376000602084830101529392505050565b6000602082840312156114b457600080fd5b813567ffffffffffffffff8111156114cb57600080fd5b8201601f810184136114dc57600080fd5b610f038482356020840161144a565b600080604083850312156114fe57600080fd5b6115078361128d565b91506020830135801515811461151c57600080fd5b809150509250929050565b6000806000806080858703121561153d57600080fd5b6115468561128d565b93506115546020860161128d565b925060408501359150606085013567ffffffffffffffff81111561157757600080fd5b8501601f8101871361158857600080fd5b6115978782356020840161144a565b91505092959194509250565b600080604083850312156115b657600080fd5b6115bf8361128d565b91506114266020840161128d565b600181811c908216806115e157607f821691505b60208210810361160157634e487b7160e01b600052602260045260246000fd5b50919050565b634e487b7160e01b600052603260045260246000fd5b634e487b7160e01b600052601160045260246000fd5b6000600182016116455761164561161d565b5060010190565b601f821115610625576000816000526020600020601f850160051c810160208610156116755750805b601f850160051c820191505b81811015610d7357828155600101611681565b815167ffffffffffffffff8111156116ae576116ae6112d3565b6116c2816116bc84546115cd565b8461164c565b602080601f8311600181146116f757600084156116df5750858301515b600019600386901b1c1916600185901b178555610d73565b600085815260208120601f198616915b8281101561172657888601518255948401946001909101908401611707565b50858210156117445787850151600019600388901b60f8161c191681555b5050505050600190811b01905550565b60008351611766818460208801611211565b602f60f81b9083019081528351611784816001840160208801611211565b01600101949350505050565b6001600160a01b03858116825284166020820152604081018390526080606082018190526000906117c390830184611235565b9695505050505050565b6000602082840312156117df57600080fd5b815161120a816111d7565b808202811582820484141761040c5761040c61161d565b8082018082111561040c5761040c61161d565b6000816118235761182361161d565b50600019019056fea2646970667358221220e42acaa6da83c7e668a9b1833b51a4d1be4ee71ad4e82b8d78aafee44d7a34ce64736f6c634300081900330000000000000000000000000000000000000000000000000000000000000000000000000000000000000000000000000000000000000000000000000000006000000000000000000000000000000000000000000000000000000000000000a0000000000000000000000000000000000000000000000000000000000000000f46616e74617379204d61646e65737300000000000000000000000000000000000000000000000000000000000000000000000000000000000000000000000002464d000000000000000000000000000000000000000000000000000000000000",
        "nonce": "0x0",
        "chainId": "0x14a34"
      },
      "additionalContracts": [],
      "isFixedGasLimit": false
    },
    {
      "hash": "0xf09ac5d4aa752b930c12b4300d34161a9be0030ac550985d0ba9e6790dd0ef1d",
      "transactionType": "CALL",
      "contractName": "NFT",
      "contractAddress": "0xa45e06d31d1ed8a0c9471a59665f38a78e79d480",
      "function": "setBaseURI(string)",
      "arguments": [
        "https://fm-ipfs.fntasy.dev/ipfs/"
      ],
      "transaction": {
        "from": "0x19173489fa86e042f323546174e74d791a36635e",
        "to": "0xa45e06d31d1ed8a0c9471a59665f38a78e79d480",
        "gas": "0x177f0",
        "value": "0x0",
        "input": "0x55f804b30000000000000000000000000000000000000000000000000000000000000020000000000000000000000000000000000000000000000000000000000000002068747470733a2f2f666d2d697066732e666e746173792e6465762f697066732f",
        "nonce": "0x1",
        "chainId": "0x14a34"
      },
      "additionalContracts": [],
      "isFixedGasLimit": false
    },
    {
      "hash": "0x8792b08bcfe0909e54faf7c6c7928f7804e010038f852b1e08e68a39dea62b09",
      "transactionType": "CALL",
      "contractName": "NFT",
      "contractAddress": "0xa45e06d31d1ed8a0c9471a59665f38a78e79d480",
      "function": "grantRole(bytes32,address)",
      "arguments": [
        "0x0000000000000000000000000000000000000000000000000000000000000000",
        "0xAD5833fe40E01c1b9997746Aa47D7cFa8bb01E72"
      ],
      "transaction": {
        "from": "0x19173489fa86e042f323546174e74d791a36635e",
        "to": "0xa45e06d31d1ed8a0c9471a59665f38a78e79d480",
        "gas": "0x1241a",
        "value": "0x0",
        "input": "0x2f2ff15d0000000000000000000000000000000000000000000000000000000000000000000000000000000000000000ad5833fe40e01c1b9997746aa47d7cfa8bb01e72",
        "nonce": "0x2",
        "chainId": "0x14a34"
      },
      "additionalContracts": [],
      "isFixedGasLimit": false
    },
    {
      "hash": "0xab423f23f85e3ac7329cb06ae628f1ffc8329c979a98f6a806e1bf6383591eeb",
      "transactionType": "CALL",
      "contractName": "NFT",
      "contractAddress": "0xa45e06d31d1ed8a0c9471a59665f38a78e79d480",
      "function": "grantRole(bytes32,address)",
      "arguments": [
        "0x154c00819833dac601ee5ddded6fda79d9d8b506b911b3dbd54cdb95fe6c3686",
        "0xe876b5EC9be3f67F3947D64c4Ebc8ac1D005C90B"
      ],
      "transaction": {
        "from": "0x19173489fa86e042f323546174e74d791a36635e",
        "to": "0xa45e06d31d1ed8a0c9471a59665f38a78e79d480",
        "gas": "0x115e1",
        "value": "0x0",
        "input": "0x2f2ff15d154c00819833dac601ee5ddded6fda79d9d8b506b911b3dbd54cdb95fe6c3686000000000000000000000000e876b5ec9be3f67f3947d64c4ebc8ac1d005c90b",
        "nonce": "0x3",
        "chainId": "0x14a34"
      },
      "additionalContracts": [],
      "isFixedGasLimit": false
    },
    {
      "hash": "0x3cba2428c86d31e3d9ce2dfe0924ee6b95efa6e848dc493fc043695c53784d83",
      "transactionType": "CALL",
      "contractName": "NFT",
      "contractAddress": "0xa45e06d31d1ed8a0c9471a59665f38a78e79d480",
      "function": "grantRole(bytes32,address)",
      "arguments": [
        "0x65d7a28e3265b37a6474929f336521b332c1681b933f6cb9f3376673440d862a",
        "0xAD5833fe40E01c1b9997746Aa47D7cFa8bb01E72"
      ],
      "transaction": {
        "from": "0x19173489fa86e042f323546174e74d791a36635e",
        "to": "0xa45e06d31d1ed8a0c9471a59665f38a78e79d480",
        "gas": "0x1264c",
        "value": "0x0",
        "input": "0x2f2ff15d65d7a28e3265b37a6474929f336521b332c1681b933f6cb9f3376673440d862a000000000000000000000000ad5833fe40e01c1b9997746aa47d7cfa8bb01e72",
        "nonce": "0x4",
        "chainId": "0x14a34"
      },
      "additionalContracts": [],
      "isFixedGasLimit": false
    },
    {
      "hash": "0xf069c7cedf7187030690bc7262c5a708841210ab6bb78b424d14472208b9a987",
      "transactionType": "CALL",
      "contractName": "NFT",
      "contractAddress": "0xa45e06d31d1ed8a0c9471a59665f38a78e79d480",
      "function": "renounceRole(bytes32,address)",
      "arguments": [
        "0x0000000000000000000000000000000000000000000000000000000000000000",
        "0x19173489Fa86e042F323546174e74D791A36635E"
      ],
      "transaction": {
        "from": "0x19173489fa86e042f323546174e74d791a36635e",
        "to": "0xa45e06d31d1ed8a0c9471a59665f38a78e79d480",
        "gas": "0x8cf4",
        "value": "0x0",
        "input": "0x36568abe000000000000000000000000000000000000000000000000000000000000000000000000000000000000000019173489fa86e042f323546174e74d791a36635e",
        "nonce": "0x5",
        "chainId": "0x14a34"
      },
      "additionalContracts": [],
      "isFixedGasLimit": false
    }
  ],
  "receipts": [
    {
      "status": "0x1",
      "cumulativeGasUsed": "0x2089f1",
      "logs": [
        {
          "address": "0xa45e06d31d1ed8a0c9471a59665f38a78e79d480",
          "topics": [
            "0x2f8788117e7eff1d82e926ec794901d17c78024a50270940304540a733656f0d",
            "0x0000000000000000000000000000000000000000000000000000000000000000",
            "0x00000000000000000000000019173489fa86e042f323546174e74d791a36635e",
            "0x00000000000000000000000019173489fa86e042f323546174e74d791a36635e"
          ],
          "data": "0x",
          "blockHash": "0x3cd15c9e5c70ff0fa80a9932a09f30c94dd222bbdea6f343fa2e37105cd3fc40",
          "blockNumber": "0x1141642",
          "transactionHash": "0x070e1d58205a19b75ab69c047da30892f841e9e79a4da3e0ceaea8bf2b136d73",
          "transactionIndex": "0x9",
          "logIndex": "0xc",
          "removed": false
        }
      ],
      "logsBloom": "0x00000004000000000000000000000000000000000000000000000000000000000000000000000000000000000000000000000000000000000000000000000000000000000000000000000000000000000000000000000000000000000000000000000000020000000000000000000800000000000400000000000000000000000000000000000000000000000000000000020000000000000000000000000000000200000000000000000000000000800000000000000000001000000000000000000000000000000000000000000000000000000000000100000000000220000000000000000000000000000000000000000000000000000000000000800000",
      "type": "0x2",
      "transactionHash": "0x070e1d58205a19b75ab69c047da30892f841e9e79a4da3e0ceaea8bf2b136d73",
      "transactionIndex": "0x9",
      "blockHash": "0x3cd15c9e5c70ff0fa80a9932a09f30c94dd222bbdea6f343fa2e37105cd3fc40",
      "blockNumber": "0x1141642",
      "gasUsed": "0x16c394",
      "effectiveGasPrice": "0x533",
      "from": "0x19173489fa86e042f323546174e74d791a36635e",
      "to": null,
      "contractAddress": "0xa45e06d31d1ed8a0c9471a59665f38a78e79d480",
      "l1BaseFeeScalar": "0x44d",
      "l1BlobBaseFee": "0x1",
      "l1BlobBaseFeeScalar": "0xa118b",
      "l1Fee": "0x96eb623d",
      "l1GasPrice": "0x203cd80",
      "l1GasUsed": "0x109c0"
    },
    {
      "status": "0x1",
      "cumulativeGasUsed": "0x219a1e",
      "logs": [],
      "logsBloom": "0x00000000000000000000000000000000000000000000000000000000000000000000000000000000000000000000000000000000000000000000000000000000000000000000000000000000000000000000000000000000000000000000000000000000000000000000000000000000000000000000000000000000000000000000000000000000000000000000000000000000000000000000000000000000000000000000000000000000000000000000000000000000000000000000000000000000000000000000000000000000000000000000000000000000000000000000000000000000000000000000000000000000000000000000000000000000",
      "type": "0x2",
      "transactionHash": "0xf09ac5d4aa752b930c12b4300d34161a9be0030ac550985d0ba9e6790dd0ef1d",
      "transactionIndex": "0xa",
      "blockHash": "0x3cd15c9e5c70ff0fa80a9932a09f30c94dd222bbdea6f343fa2e37105cd3fc40",
      "blockNumber": "0x1141642",
      "gasUsed": "0x1102d",
      "effectiveGasPrice": "0x533",
      "from": "0x19173489fa86e042f323546174e74d791a36635e",
      "to": "0xa45e06d31d1ed8a0c9471a59665f38a78e79d480",
      "contractAddress": null,
      "l1BaseFeeScalar": "0x44d",
      "l1BlobBaseFee": "0x1",
      "l1BlobBaseFeeScalar": "0xa118b",
      "l1Fee": "0x38ca39c",
      "l1GasPrice": "0x203cd80",
      "l1GasUsed": "0x640"
    },
    {
      "status": "0x1",
      "cumulativeGasUsed": "0x2261d9",
      "logs": [
        {
          "address": "0xa45e06d31d1ed8a0c9471a59665f38a78e79d480",
          "topics": [
            "0x2f8788117e7eff1d82e926ec794901d17c78024a50270940304540a733656f0d",
            "0x0000000000000000000000000000000000000000000000000000000000000000",
            "0x000000000000000000000000ad5833fe40e01c1b9997746aa47d7cfa8bb01e72",
            "0x00000000000000000000000019173489fa86e042f323546174e74d791a36635e"
          ],
          "data": "0x",
          "blockHash": "0x3cd15c9e5c70ff0fa80a9932a09f30c94dd222bbdea6f343fa2e37105cd3fc40",
          "blockNumber": "0x1141642",
          "transactionHash": "0x8792b08bcfe0909e54faf7c6c7928f7804e010038f852b1e08e68a39dea62b09",
          "transactionIndex": "0xb",
          "logIndex": "0xd",
          "removed": false
        }
      ],
      "logsBloom": "0x00000004000000000000000000000000000000000000000000000000000000000000000000000000000000000000000008000000000000000000000000000000000000000000000000000000000000000000000000000000000000000000000000000000020000000000000000000800000000000400000000000000000000000000000000000000000000000000000000020000000000000000000000000040000200010000000000000000000000800000000000000000001000000000000000000000000000000000000000000000000000000000000100000000000220000000000000000000000000000000000000000000000000000000000000800000",
      "type": "0x2",
      "transactionHash": "0x8792b08bcfe0909e54faf7c6c7928f7804e010038f852b1e08e68a39dea62b09",
      "transactionIndex": "0xb",
      "blockHash": "0x3cd15c9e5c70ff0fa80a9932a09f30c94dd222bbdea6f343fa2e37105cd3fc40",
      "blockNumber": "0x1141642",
      "gasUsed": "0xc7bb",
      "effectiveGasPrice": "0x533",
      "from": "0x19173489fa86e042f323546174e74d791a36635e",
      "to": "0xa45e06d31d1ed8a0c9471a59665f38a78e79d480",
      "contractAddress": null,
      "l1BaseFeeScalar": "0x44d",
      "l1BlobBaseFee": "0x1",
      "l1BlobBaseFeeScalar": "0xa118b",
      "l1Fee": "0x38ca39c",
      "l1GasPrice": "0x203cd80",
      "l1GasUsed": "0x640"
    },
    {
      "status": "0x1",
      "cumulativeGasUsed": "0x232b08",
      "logs": [
        {
          "address": "0xa45e06d31d1ed8a0c9471a59665f38a78e79d480",
          "topics": [
            "0x2f8788117e7eff1d82e926ec794901d17c78024a50270940304540a733656f0d",
            "0x154c00819833dac601ee5ddded6fda79d9d8b506b911b3dbd54cdb95fe6c3686",
            "0x000000000000000000000000e876b5ec9be3f67f3947d64c4ebc8ac1d005c90b",
            "0x00000000000000000000000019173489fa86e042f323546174e74d791a36635e"
          ],
          "data": "0x",
          "blockHash": "0x3cd15c9e5c70ff0fa80a9932a09f30c94dd222bbdea6f343fa2e37105cd3fc40",
          "blockNumber": "0x1141642",
          "transactionHash": "0xab423f23f85e3ac7329cb06ae628f1ffc8329c979a98f6a806e1bf6383591eeb",
          "transactionIndex": "0xc",
          "logIndex": "0xe",
          "removed": false
        }
      ],
      "logsBloom": "0x00000004000000000000000000000000200000000000000000000000000000000000000000000000000000000000000000000000000000000080000000000000000000000000000000000000010000000000000000000000000000000000000000008000000000000000000000000000000000000400000000000000000000010000000000000000000000000000000000020000000000000000000000000000000200000000000000000000000000800000000000000000001000000000000000000000000000000000000000000000000000000000000100000000000200000000000000000000000000000000000000010000000000000000000000800000",
      "type": "0x2",
      "transactionHash": "0xab423f23f85e3ac7329cb06ae628f1ffc8329c979a98f6a806e1bf6383591eeb",
      "transactionIndex": "0xc",
      "blockHash": "0x3cd15c9e5c70ff0fa80a9932a09f30c94dd222bbdea6f343fa2e37105cd3fc40",
      "blockNumber": "0x1141642",
      "gasUsed": "0xc92f",
      "effectiveGasPrice": "0x533",
      "from": "0x19173489fa86e042f323546174e74d791a36635e",
      "to": "0xa45e06d31d1ed8a0c9471a59665f38a78e79d480",
      "contractAddress": null,
      "l1BaseFeeScalar": "0x44d",
      "l1BlobBaseFee": "0x1",
      "l1BlobBaseFeeScalar": "0xa118b",
      "l1Fee": "0x3b6c911",
      "l1GasPrice": "0x203cd80",
      "l1GasUsed": "0x68a"
    },
    {
      "status": "0x1",
      "cumulativeGasUsed": "0x23f443",
      "logs": [
        {
          "address": "0xa45e06d31d1ed8a0c9471a59665f38a78e79d480",
          "topics": [
            "0x2f8788117e7eff1d82e926ec794901d17c78024a50270940304540a733656f0d",
            "0x65d7a28e3265b37a6474929f336521b332c1681b933f6cb9f3376673440d862a",
            "0x000000000000000000000000ad5833fe40e01c1b9997746aa47d7cfa8bb01e72",
            "0x00000000000000000000000019173489fa86e042f323546174e74d791a36635e"
          ],
          "data": "0x",
          "blockHash": "0x3cd15c9e5c70ff0fa80a9932a09f30c94dd222bbdea6f343fa2e37105cd3fc40",
          "blockNumber": "0x1141642",
          "transactionHash": "0x3cba2428c86d31e3d9ce2dfe0924ee6b95efa6e848dc493fc043695c53784d83",
          "transactionIndex": "0xd",
          "logIndex": "0xf",
          "removed": false
        }
      ],
      "logsBloom": "0x00000004000000000000000000000000000000000000000000000000000000000000000000000000000000000000000008000000000000000000000000000000000000000000000000000000000000000000000000000000000000000000000000000000000000000000000000000000000000000400000000000000000000000000000000000000000000000000008000020000000000000000000000000040000200010000000000000000000000800000000000000000001000000000000000000000000000000000000000000000000000000000000100002000000200000000000000000000000000000000000000000400000000000000000000800000",
      "type": "0x2",
      "transactionHash": "0x3cba2428c86d31e3d9ce2dfe0924ee6b95efa6e848dc493fc043695c53784d83",
      "transactionIndex": "0xd",
      "blockHash": "0x3cd15c9e5c70ff0fa80a9932a09f30c94dd222bbdea6f343fa2e37105cd3fc40",
      "blockNumber": "0x1141642",
      "gasUsed": "0xc93b",
      "effectiveGasPrice": "0x533",
      "from": "0x19173489fa86e042f323546174e74d791a36635e",
      "to": "0xa45e06d31d1ed8a0c9471a59665f38a78e79d480",
      "contractAddress": null,
      "l1BaseFeeScalar": "0x44d",
      "l1BlobBaseFee": "0x1",
      "l1BlobBaseFeeScalar": "0xa118b",
      "l1Fee": "0x3b6c911",
      "l1GasPrice": "0x203cd80",
      "l1GasUsed": "0x68a"
    },
    {
      "status": "0x1",
      "cumulativeGasUsed": "0x2454a4",
      "logs": [
        {
          "address": "0xa45e06d31d1ed8a0c9471a59665f38a78e79d480",
          "topics": [
            "0xf6391f5c32d9c69d2a47ea670b442974b53935d1edc7fd64eb21e047a839171b",
            "0x0000000000000000000000000000000000000000000000000000000000000000",
            "0x00000000000000000000000019173489fa86e042f323546174e74d791a36635e",
            "0x00000000000000000000000019173489fa86e042f323546174e74d791a36635e"
          ],
          "data": "0x",
          "blockHash": "0x3cd15c9e5c70ff0fa80a9932a09f30c94dd222bbdea6f343fa2e37105cd3fc40",
          "blockNumber": "0x1141642",
          "transactionHash": "0xf069c7cedf7187030690bc7262c5a708841210ab6bb78b424d14472208b9a987",
          "transactionIndex": "0xe",
          "logIndex": "0x10",
          "removed": false
        }
      ],
      "logsBloom": "0x00000000000000000000000000000000000000000000000000000000000000000000000000000000000000000000000000200000000000000000000000000000000000000000000000000000000000000000000000000000000000000000000040000000020000000000000000000800000000000400000000000000000000000000000040000000000000000000000000020000000000000000000000000000000200000000000000000000000000800000000000000000000000000000000000000000000000000000000000000000000000000000000000000000000220000000000000000000000000000000000000000000000000000000000000800000",
      "type": "0x2",
      "transactionHash": "0xf069c7cedf7187030690bc7262c5a708841210ab6bb78b424d14472208b9a987",
      "transactionIndex": "0xe",
      "blockHash": "0x3cd15c9e5c70ff0fa80a9932a09f30c94dd222bbdea6f343fa2e37105cd3fc40",
      "blockNumber": "0x1141642",
      "gasUsed": "0x6061",
      "effectiveGasPrice": "0x533",
      "from": "0x19173489fa86e042f323546174e74d791a36635e",
      "to": "0xa45e06d31d1ed8a0c9471a59665f38a78e79d480",
      "contractAddress": null,
      "l1BaseFeeScalar": "0x44d",
      "l1BlobBaseFee": "0x1",
      "l1BlobBaseFeeScalar": "0xa118b",
      "l1Fee": "0x38ca39c",
      "l1GasPrice": "0x203cd80",
      "l1GasUsed": "0x640"
    }
  ],
  "libraries": [],
  "pending": [],
  "returns": {},
  "timestamp": 1731955580,
  "chain": 84532,
  "commit": "a2764de"
}