{
  "transactions": [
    {
      "hash": "0xba111cc490beb8973c1b1757f3d86938eea58fa8aad313a47bfa2fa4a14c6efe",
      "transactionType": "CREATE",
      "contractName": "DistributionManager",
      "contractAddress": "0x08fe0efec67f5679bbd89961ee0d05c3d5eb90ea",
      "function": null,
      "arguments": [
        "0x9E3CA1EdB50439a1d3fD4Bce071fA50cB48C7A1b",
        "0xF59d326E64B325213feb803fa1FdB3f48C292fb6"
      ],
      "transaction": {
        "from": "0x19173489fa86e042f323546174e74d791a36635e",
        "gas": "0x1bac25",
        "value": "0x0",
        "input": "0x608060405234801561001057600080fd5b5060405161187738038061187783398101604081905261002f9161014e565b600180546001600160a81b0319166101006001600160a01b038581169190910291909117909155600280546001600160a01b03191691831691909117905561007e60006100793390565b610086565b505050610181565b6000828152602081815260408083206001600160a01b038516845290915281205460ff16610128576000838152602081815260408083206001600160a01b03861684529091529020805460ff191660011790556100e03390565b6001600160a01b0316826001600160a01b0316847f2f8788117e7eff1d82e926ec794901d17c78024a50270940304540a733656f0d60405160405180910390a450600161012c565b5060005b92915050565b80516001600160a01b038116811461014957600080fd5b919050565b6000806040838503121561016157600080fd5b61016a83610132565b915061017860208401610132565b90509250929050565b6116e7806101906000396000f3fe608060405234801561001057600080fd5b506004361061010b5760003560e01c80635c975abb116100a2578063cc46ad9b11610071578063cc46ad9b14610218578063d547741f14610230578063e63ab1e914610243578063e69967501461026a578063f0bd87cc1461027d57600080fd5b80635c975abb146101ea5780638456cb59146101f557806391d14854146101fd578063a217fddf1461021057600080fd5b80632f2ff15d116100de5780632f2ff15d1461019157806333c5eaca146101a457806336568abe146101cf5780633f4ba83a146101e257600080fd5b806301ffc9a71461011057806310df0d921461013857806314a8ad541461014d578063248a9ca314610160575b600080fd5b61012361011e366004610f57565b6102a4565b60405190151581526020015b60405180910390f35b61014b61014636600461108c565b6102db565b005b61012361015b366004611119565b61031c565b61018361016e366004611156565b60009081526020819052604090206001015490565b60405190815260200161012f565b61014b61019f36600461116f565b610347565b6002546101b7906001600160a01b031681565b6040516001600160a01b03909116815260200161012f565b61014b6101dd36600461116f565b610372565b61014b6103aa565b60015460ff16610123565b61014b6103df565b61012361020b36600461116f565b610411565b610183600081565b6001546101b79061010090046001600160a01b031681565b61014b61023e36600461116f565b61043a565b6101837f65d7a28e3265b37a6474929f336521b332c1681b933f6cb9f3376673440d862a81565b61014b61027836600461119b565b61045f565b6101837ffbd454f36a7e1a388bd6fc3ab10d434aa4578f811acbbcf33afb1c697486313c81565b60006001600160e01b03198216637965db0b60e01b14806102d557506301ffc9a760e01b6001600160e01b03198316145b92915050565b7ffbd454f36a7e1a388bd6fc3ab10d434aa4578f811acbbcf33afb1c697486313c6103058161046e565b610313878787878787610478565b50505050505050565b600060038260405161032e9190611278565b9081526040519081900360200190205460ff1692915050565b6000828152602081905260409020600101546103628161046e565b61036c83836107dd565b50505050565b6001600160a01b038116331461039b5760405163334bd91960e11b815260040160405180910390fd5b6103a5828261086f565b505050565b7f65d7a28e3265b37a6474929f336521b332c1681b933f6cb9f3376673440d862a6103d48161046e565b6103dc6108da565b50565b7f65d7a28e3265b37a6474929f336521b332c1681b933f6cb9f3376673440d862a6104098161046e565b6103dc61092c565b6000918252602082815260408084206001600160a01b0393909316845291905290205460ff1690565b6000828152602081905260409020600101546104558161046e565b61036c838361086f565b61030581888888888888610967565b6103dc8133610bc8565b610480610c05565b61048986610c2b565b8315610545576000856001600160a01b03168560405160006040518083038185875af1925050503d80600081146104dc576040519150601f19603f3d011682016040523d82523d6000602084013e6104e1565b606091505b50509050806105435760405162461bcd60e51b8152602060048201526024808201527f446973747269627574696f6e4d616e616765723a205472616e736665722066616044820152631a5b195960e21b60648201526084015b60405180910390fd5b505b60008267ffffffffffffffff81111561056057610560610f81565b6040519080825280602002602001820160405280156105a657816020015b60408051808201909152606081526000602082015281526020019060019003908161057e5790505b50905060005b838110156106fb576002546000906001600160a01b0316634ef32c1e898888868181106105db576105db611294565b90506020028101906105ed91906112aa565b6105fb9060208101906112c0565b6040518363ffffffff1660e01b81526004016106189291906113da565b6020604051808303816000875af1158015610637573d6000803e3d6000fd5b505050506040513d601f19601f8201168201806040525081019061065b91906113fe565b9050604051806040016040528087878581811061067a5761067a611294565b905060200281019061068c91906112aa565b6106969080611417565b8080601f01602080910402602001604051908101604052809392919081815260200183838082843760009201919091525050509082525060200182905283518490849081106106e7576106e7611294565b6020908102919091010152506001016105ac565b5081156107815760015460405163a9059cbb60e01b81526001600160a01b038881166004830152602482018590526101009092049091169063a9059cbb906044016020604051808303816000875af115801561075b573d6000803e3d6000fd5b505050506040513d601f19601f8201168201806040525081019061077f919061145e565b505b8660405161078f9190611278565b60405180910390207fcf4fb9b6027b6e2a66d9cd01ff7d27b73771e4985d9c427cdc7be2630faad83b878784866040516107cc94939291906114ac565b60405180910390a250505050505050565b60006107e98383610411565b610867576000838152602081815260408083206001600160a01b03861684529091529020805460ff1916600117905561081f3390565b6001600160a01b0316826001600160a01b0316847f2f8788117e7eff1d82e926ec794901d17c78024a50270940304540a733656f0d60405160405180910390a45060016102d5565b5060006102d5565b600061087b8383610411565b15610867576000838152602081815260408083206001600160a01b0386168085529252808320805460ff1916905551339286917ff6391f5c32d9c69d2a47ea670b442974b53935d1edc7fd64eb21e047a839171b9190a45060016102d5565b6108e2610cc5565b6001805460ff191690557f5db9ee0a495bf2e6ff9c91a7834c1ba4fdd244a5e8aa4e537bd38aeae4b073aa335b6040516001600160a01b03909116815260200160405180910390a1565b610934610c05565b6001805460ff1916811790557f62e78cea01bee320cd4e420270b5ea74000d11b0c9f74754ebdbfc544b05a2583361090f565b61099b7ffbd454f36a7e1a388bd6fc3ab10d434aa4578f811acbbcf33afb1c697486313c61020b60408a0160208b01611544565b610a175760405162461bcd60e51b815260206004820152604160248201527f446973747269627574696f6e4d616e616765723a204d697373696e6720726f6c60448201527f65204449535452494255544f525f524f4c4520666f7220617574686f72697a656064820152603960f91b608482015260a40161053a565b610a24602088018861155f565b64ffffffffff16421115610a895760405162461bcd60e51b815260206004820152602660248201527f446973747269627574696f6e4d616e616765723a205369676e617475726520656044820152651e1c1a5c995960d21b606482015260840161053a565b610b6d610a9c6040890160208a01611544565b610b26610aaf60408b0160208c01611544565b610abc60208c018c61155f565b46308c8c8c8c8c8c604051602001610add9a99989796959493929190611586565b604051602081830303815290604052805190602001207f19457468657265756d205369676e6564204d6573736167653a0a3332000000006000908152601c91909152603c902090565b610b3360408b018b611417565b8080601f016020809104026020016040519081016040528093929190818152602001838380828437600092019190915250610ce892505050565b6103135760405162461bcd60e51b815260206004820152602660248201527f446973747269627574696f6e4d616e616765723a20496e76616c6964205369676044820152656e617475726560d01b606482015260840161053a565b610bd28282610411565b610c015760405163e2517d3f60e01b81526001600160a01b03821660048201526024810183905260440161053a565b5050565b60015460ff1615610c295760405163d93c066560e01b815260040160405180910390fd5b565b610c348161031c565b15610c905760405162461bcd60e51b815260206004820152602660248201527f446973747269627574696f6e4d616e616765723a20554944206d75737420626560448201526510333932b29760d11b606482015260840161053a565b6001600382604051610ca29190611278565b908152604051908190036020019020805491151560ff1990921691909117905550565b60015460ff16610c2957604051638dfc202b60e01b815260040160405180910390fd5b6000836001600160a01b03163b600003610d4a57600080610d098585610d5f565b5090925090506000816003811115610d2357610d23611345565b148015610d415750856001600160a01b0316826001600160a01b0316145b92505050610d58565b610d55848484610dac565b90505b9392505050565b60008060008351604103610d995760208401516040850151606086015160001a610d8b88828585610e88565b955095509550505050610da5565b50508151600091506002905b9250925092565b6000806000856001600160a01b03168585604051602401610dce929190611698565b60408051601f198184030181529181526020820180516001600160e01b0316630b135d3f60e11b17905251610e039190611278565b600060405180830381855afa9150503d8060008114610e3e576040519150601f19603f3d011682016040523d82523d6000602084013e610e43565b606091505b5091509150818015610e5757506020815110155b8015610e7e57508051630b135d3f60e11b90610e7c90830160209081019084016113fe565b145b9695505050505050565b600080807f7fffffffffffffffffffffffffffffff5d576e7357a4501ddfe92f46681b20a0841115610ec35750600091506003905082610f4d565b604080516000808252602082018084528a905260ff891692820192909252606081018790526080810186905260019060a0016020604051602081039080840390855afa158015610f17573d6000803e3d6000fd5b5050604051601f1901519150506001600160a01b038116610f4357506000925060019150829050610f4d565b9250600091508190505b9450945094915050565b600060208284031215610f6957600080fd5b81356001600160e01b031981168114610d5857600080fd5b634e487b7160e01b600052604160045260246000fd5b600082601f830112610fa857600080fd5b813567ffffffffffffffff80821115610fc357610fc3610f81565b604051601f8301601f19908116603f01168101908282118183101715610feb57610feb610f81565b8160405283815286602085880101111561100457600080fd5b836020870160208301376000602085830101528094505050505092915050565b80356001600160a01b038116811461103b57600080fd5b919050565b60008083601f84011261105257600080fd5b50813567ffffffffffffffff81111561106a57600080fd5b6020830191508360208260051b850101111561108557600080fd5b9250929050565b60008060008060008060a087890312156110a557600080fd5b863567ffffffffffffffff808211156110bd57600080fd5b6110c98a838b01610f97565b97506110d760208a01611024565b96506040890135955060608901359150808211156110f457600080fd5b5061110189828a01611040565b979a9699509497949695608090950135949350505050565b60006020828403121561112b57600080fd5b813567ffffffffffffffff81111561114257600080fd5b61114e84828501610f97565b949350505050565b60006020828403121561116857600080fd5b5035919050565b6000806040838503121561118257600080fd5b8235915061119260208401611024565b90509250929050565b600080600080600080600060c0888a0312156111b657600080fd5b873567ffffffffffffffff808211156111ce57600080fd5b6111da8b838c01610f97565b98506111e860208b01611024565b975060408a0135965060608a013591508082111561120557600080fd5b6112118b838c01611040565b909650945060808a0135935060a08a013591508082111561123157600080fd5b5088016060818b03121561124457600080fd5b8091505092959891949750929550565b60005b8381101561126f578181015183820152602001611257565b50506000910152565b6000825161128a818460208701611254565b9190910192915050565b634e487b7160e01b600052603260045260246000fd5b60008235603e1983360301811261128a57600080fd5b60008235607e1983360301811261128a57600080fd5b6000808335601e198436030181126112ed57600080fd5b830160208101925035905067ffffffffffffffff81111561130d57600080fd5b80360382131561108557600080fd5b81835281816020850137506000828201602090810191909152601f909101601f19169091010190565b634e487b7160e01b600052602160045260246000fd5b600061136782836112d6565b6080855261137960808601828461131c565b91505061138960208401846112d6565b858303602087015261139c83828461131c565b925050506040830135600381106113b257600080fd5b60408501526060830135600281106113c957600080fd5b806060860152508091505092915050565b6001600160a01b038316815260406020820181905260009061114e9083018461135b565b60006020828403121561141057600080fd5b5051919050565b6000808335601e1984360301811261142e57600080fd5b83018035915067ffffffffffffffff82111561144957600080fd5b60200191503681900382131561108557600080fd5b60006020828403121561147057600080fd5b81518015158114610d5857600080fd5b60008151808452611498816020860160208601611254565b601f01601f19169290920160200192915050565b60006080820160018060a01b03871683526020868185015260406080604086015282875180855260a08701915060a08160051b880101945083890160005b8281101561152b57888703609f190184528151805186895261150e878a0182611480565b9188015198880198909852965092850192908501906001016114ea565b5050505050508091505082606083015295945050505050565b60006020828403121561155657600080fd5b610d5882611024565b60006020828403121561157157600080fd5b813564ffffffffff81168114610d5857600080fd5b600061012060018060a01b03808e168452602064ffffffffff8e168186015260408d6040870152828d1660608701528360808701526115c78487018d611480565b928b1660a087015260c086018a905285830360e087015287835291925080830191600588901b840182018960005b8a81101561167857868303601f190186528135368d9003603e1901811261161b57600080fd5b8c0161162781806112d6565b868652611637878701828461131c565b91505086820135607e1983360301811261165057600080fd5b858203888701526116638284830161135b565b988801989550505091850191506001016115f5565b50508095505050505050826101008301529b9a5050505050505050505050565b82815260406020820152600061114e604083018461148056fea2646970667358221220092fb30bf67a039e6756c17f4c64df57411e08b94d019e4409866598fdae206e64736f6c634300081900330000000000000000000000009e3ca1edb50439a1d3fd4bce071fa50cb48c7a1b000000000000000000000000f59d326e64b325213feb803fa1fdb3f48c292fb6",
        "nonce": "0x4a",
        "chainId": "0x14a34"
      },
      "additionalContracts": [],
      "isFixedGasLimit": false
    },
    {
      "hash": "0xd67d5fcaf0fabe45c1f8655e7b221c455d397c8d02eb45abcfd3d610860f7729",
      "transactionType": "CALL",
      "contractName": "DistributionManager",
      "contractAddress": "0x08fe0efec67f5679bbd89961ee0d05c3d5eb90ea",
      "function": "grantRole(bytes32,address)",
      "arguments": [
        "0x0000000000000000000000000000000000000000000000000000000000000000",
        "0xAD5833fe40E01c1b9997746Aa47D7cFa8bb01E72"
      ],
      "transaction": {
        "from": "0x19173489fa86e042f323546174e74d791a36635e",
        "to": "0x08fe0efec67f5679bbd89961ee0d05c3d5eb90ea",
        "gas": "0x113a1",
        "value": "0x0",
        "input": "0x2f2ff15d0000000000000000000000000000000000000000000000000000000000000000000000000000000000000000ad5833fe40e01c1b9997746aa47d7cfa8bb01e72",
        "nonce": "0x4b",
        "chainId": "0x14a34"
      },
      "additionalContracts": [],
      "isFixedGasLimit": false
    },
    {
      "hash": "0x9d791d874357da5f818637f355ba2c84ae4d27576c17a59e5ab7e77e6fa1c06d",
      "transactionType": "CALL",
      "contractName": "DistributionManager",
      "contractAddress": "0x08fe0efec67f5679bbd89961ee0d05c3d5eb90ea",
      "function": "grantRole(bytes32,address)",
      "arguments": [
        "0x65d7a28e3265b37a6474929f336521b332c1681b933f6cb9f3376673440d862a",
        "0xAD5833fe40E01c1b9997746Aa47D7cFa8bb01E72"
      ],
      "transaction": {
        "from": "0x19173489fa86e042f323546174e74d791a36635e",
        "to": "0x08fe0efec67f5679bbd89961ee0d05c3d5eb90ea",
        "gas": "0x115b3",
        "value": "0x0",
        "input": "0x2f2ff15d65d7a28e3265b37a6474929f336521b332c1681b933f6cb9f3376673440d862a000000000000000000000000ad5833fe40e01c1b9997746aa47d7cfa8bb01e72",
        "nonce": "0x4c",
        "chainId": "0x14a34"
      },
      "additionalContracts": [],
      "isFixedGasLimit": false
    },
    {
      "hash": "0x4a68ffd6b44c5aae9c4353d031bc512c10023a95557dc2885b313f5f1fc1f0a9",
      "transactionType": "CALL",
      "contractName": "DistributionManager",
      "contractAddress": "0x08fe0efec67f5679bbd89961ee0d05c3d5eb90ea",
      "function": "grantRole(bytes32,address)",
      "arguments": [
        "0xfbd454f36a7e1a388bd6fc3ab10d434aa4578f811acbbcf33afb1c697486313c",
        "0xe876b5EC9be3f67F3947D64c4Ebc8ac1D005C90B"
      ],
      "transaction": {
        "from": "0x19173489fa86e042f323546174e74d791a36635e",
        "to": "0x08fe0efec67f5679bbd89961ee0d05c3d5eb90ea",
        "gas": "0x115b3",
        "value": "0x0",
        "input": "0x2f2ff15dfbd454f36a7e1a388bd6fc3ab10d434aa4578f811acbbcf33afb1c697486313c000000000000000000000000e876b5ec9be3f67f3947d64c4ebc8ac1d005c90b",
        "nonce": "0x4d",
        "chainId": "0x14a34"
      },
      "additionalContracts": [],
      "isFixedGasLimit": false
    },
    {
      "hash": "0x518ca9e8e91a6e1dd507e16b4819ce938bdbc25c861afbd58fd5cf54b627b051",
      "transactionType": "CALL",
      "contractName": "DistributionManager",
      "contractAddress": "0x08fe0efec67f5679bbd89961ee0d05c3d5eb90ea",
      "function": "revokeRole(bytes32,address)",
      "arguments": [
        "0x0000000000000000000000000000000000000000000000000000000000000000",
        "0x19173489Fa86e042F323546174e74D791A36635E"
      ],
      "transaction": {
        "from": "0x19173489fa86e042f323546174e74d791a36635e",
        "to": "0x08fe0efec67f5679bbd89961ee0d05c3d5eb90ea",
        "gas": "0x9274",
        "value": "0x0",
        "input": "0xd547741f000000000000000000000000000000000000000000000000000000000000000000000000000000000000000019173489fa86e042f323546174e74d791a36635e",
        "nonce": "0x4e",
        "chainId": "0x14a34"
      },
      "additionalContracts": [],
      "isFixedGasLimit": false
    },
    {
      "hash": "0xe65e66ed972a995f996b0903a1bd0ba5ed5e11cd307e6302b4a5c37762996143",
      "transactionType": "CALL",
      "contractName": null,
      "contractAddress": "0xf59d326e64b325213feb803fa1fdb3f48c292fb6",
      "function": "grantRole(bytes32,address)",
      "arguments": [
        "0x154c00819833dac601ee5ddded6fda79d9d8b506b911b3dbd54cdb95fe6c3686",
        "0x08FE0EfEc67F5679bBd89961ee0d05C3d5Eb90eA"
      ],
      "transaction": {
        "from": "0x19173489fa86e042f323546174e74d791a36635e",
        "to": "0xf59d326e64b325213feb803fa1fdb3f48c292fb6",
        "gas": "0x1261a",
        "value": "0x0",
        "input": "0x2f2ff15d154c00819833dac601ee5ddded6fda79d9d8b506b911b3dbd54cdb95fe6c368600000000000000000000000008fe0efec67f5679bbd89961ee0d05c3d5eb90ea",
        "nonce": "0x4f",
        "chainId": "0x14a34"
      },
      "additionalContracts": [],
      "isFixedGasLimit": false
    },
    {
      "hash": "0x234b709b5667e50a9a40ec5eb9f0f1c3fad75ad7b38d1e985c451b7778db433e",
      "transactionType": "CALL",
      "contractName": null,
      "contractAddress": "0xf59d326e64b325213feb803fa1fdb3f48c292fb6",
      "function": "renounceRole(bytes32,address)",
      "arguments": [
        "0x0000000000000000000000000000000000000000000000000000000000000000",
        "0x19173489Fa86e042F323546174e74D791A36635E"
      ],
      "transaction": {
        "from": "0x19173489fa86e042f323546174e74d791a36635e",
        "to": "0xf59d326e64b325213feb803fa1fdb3f48c292fb6",
        "gas": "0x8cd3",
        "value": "0x0",
        "input": "0x36568abe000000000000000000000000000000000000000000000000000000000000000000000000000000000000000019173489fa86e042f323546174e74d791a36635e",
        "nonce": "0x50",
        "chainId": "0x14a34"
      },
      "additionalContracts": [],
      "isFixedGasLimit": false
    },
    {
      "hash": "0x9b67c32da249555fc96f6a9b4affe823226f64a969936ff1bc766b4e00f1e3ad",
      "transactionType": "CALL",
      "contractName": null,
      "contractAddress": "0x9e3ca1edb50439a1d3fd4bce071fa50cb48c7a1b",
      "function": "approve(address,uint256)",
      "arguments": [
        "0x08FE0EfEc67F5679bBd89961ee0d05C3d5Eb90eA",
        "115792089237316195423570985008687907853269984665640564039457584007913129639935"
      ],
      "transaction": {
        "from": "0xe876b5ec9be3f67f3947d64c4ebc8ac1d005c90b",
        "to": "0x9e3ca1edb50439a1d3fd4bce071fa50cb48c7a1b",
        "gas": "0x10a74",
        "value": "0x0",
        "input": "0x095ea7b300000000000000000000000008fe0efec67f5679bbd89961ee0d05c3d5eb90eaffffffffffffffffffffffffffffffffffffffffffffffffffffffffffffffff",
        "nonce": "0x12",
        "chainId": "0x14a34"
      },
      "additionalContracts": [],
      "isFixedGasLimit": false
    },
    {
      "hash": "0x0dc54693face32ad153a94d0efef021b70a45f12b2d4e697faaed56ffc5482df",
      "transactionType": "CALL",
      "contractName": null,
      "contractAddress": "0xf59d326e64b325213feb803fa1fdb3f48c292fb6",
      "function": "setApprovalForAll(address,bool)",
      "arguments": [
        "0x08FE0EfEc67F5679bBd89961ee0d05C3d5Eb90eA",
        "true"
      ],
      "transaction": {
        "from": "0xe876b5ec9be3f67f3947d64c4ebc8ac1d005c90b",
        "to": "0xf59d326e64b325213feb803fa1fdb3f48c292fb6",
        "gas": "0xf924",
        "value": "0x0",
        "input": "0xa22cb46500000000000000000000000008fe0efec67f5679bbd89961ee0d05c3d5eb90ea0000000000000000000000000000000000000000000000000000000000000001",
        "nonce": "0x13",
        "chainId": "0x14a34"
      },
      "additionalContracts": [],
      "isFixedGasLimit": false
    }
  ],
  "receipts": [
    {
      "status": "0x1",
      "cumulativeGasUsed": "0x5022e9",
      "logs": [
        {
          "address": "0x08fe0efec67f5679bbd89961ee0d05c3d5eb90ea",
          "topics": [
            "0x2f8788117e7eff1d82e926ec794901d17c78024a50270940304540a733656f0d",
            "0x0000000000000000000000000000000000000000000000000000000000000000",
            "0x00000000000000000000000019173489fa86e042f323546174e74d791a36635e",
            "0x00000000000000000000000019173489fa86e042f323546174e74d791a36635e"
          ],
          "data": "0x",
          "blockHash": "0x253d80f51473ca2821fef579165a52efd7f247337e7f313692af766525899901",
          "blockNumber": "0x1288204",
          "transactionHash": "0xba111cc490beb8973c1b1757f3d86938eea58fa8aad313a47bfa2fa4a14c6efe",
          "transactionIndex": "0x19",
          "logIndex": "0x3d",
          "removed": false
        }
      ],
      "logsBloom": "0x00000004000000000000000000000000000000000000000000000000000000000000000000000000000000000000000000000000000080000008000000000000000000000000000000000000000000000000000000000000000000000000000000000000020000000000000000000800000000000000000000000000000000000000008000000000000000000000000000020000000000000000000000000000000000000000000000000000000000800000000000000000001000000000000000000000000000000000000000000000000000000000000100000000000020000000000000000000000000000000000000000000000000000000000000800000",
      "type": "0x2",
      "transactionHash": "0xba111cc490beb8973c1b1757f3d86938eea58fa8aad313a47bfa2fa4a14c6efe",
      "transactionIndex": "0x19",
      "blockHash": "0x253d80f51473ca2821fef579165a52efd7f247337e7f313692af766525899901",
      "blockNumber": "0x1288204",
      "gasUsed": "0x154ae4",
      "effectiveGasPrice": "0xc863",
      "from": "0x19173489fa86e042f323546174e74d791a36635e",
      "to": null,
      "contractAddress": "0x08fe0efec67f5679bbd89961ee0d05c3d5eb90ea",
      "l1BaseFeeScalar": "0x44d",
      "l1BlobBaseFee": "0x1",
      "l1BlobBaseFeeScalar": "0xa118b",
      "l1Fee": "0x293ccfb3e56",
      "l1GasPrice": "0x9d613166e",
      "l1GasUsed": "0xedfd"
    },
    {
      "status": "0x1",
      "cumulativeGasUsed": "0x3c9699",
      "logs": [
        {
          "address": "0x08fe0efec67f5679bbd89961ee0d05c3d5eb90ea",
          "topics": [
            "0x2f8788117e7eff1d82e926ec794901d17c78024a50270940304540a733656f0d",
            "0x0000000000000000000000000000000000000000000000000000000000000000",
            "0x000000000000000000000000ad5833fe40e01c1b9997746aa47d7cfa8bb01e72",
            "0x00000000000000000000000019173489fa86e042f323546174e74d791a36635e"
          ],
          "data": "0x",
          "blockHash": "0x7f9e2f0e72aee453d04696fc729b0ccda8440e2df96e076ef6dc5b479d1e34a7",
          "blockNumber": "0x1288206",
          "transactionHash": "0xd67d5fcaf0fabe45c1f8655e7b221c455d397c8d02eb45abcfd3d610860f7729",
          "transactionIndex": "0x1a",
          "logIndex": "0x43",
          "removed": false
        }
      ],
      "logsBloom": "0x00000004000000000000000000000000000000000000000000000000000000000000000000000000000000000000000008000000000080000008000000000000000000000000000000000000000000000000000000000000000000000000000000000000020000000000000000000800000000000000000000000000000000000000008000000000000000000000000000020000000000000000000000000040000000010000000000000000000000800000000000000000001000000000000000000000000000000000000000000000000000000000000100000000000020000000000000000000000000000000000000000000000000000000000000800000",
      "type": "0x2",
      "transactionHash": "0xd67d5fcaf0fabe45c1f8655e7b221c455d397c8d02eb45abcfd3d610860f7729",
      "transactionIndex": "0x1a",
      "blockHash": "0x7f9e2f0e72aee453d04696fc729b0ccda8440e2df96e076ef6dc5b479d1e34a7",
      "blockNumber": "0x1288206",
      "gasUsed": "0xc78e",
      "effectiveGasPrice": "0xc863",
      "from": "0x19173489fa86e042f323546174e74d791a36635e",
      "to": "0x08fe0efec67f5679bbd89961ee0d05c3d5eb90ea",
      "contractAddress": null,
      "l1BaseFeeScalar": "0x44d",
      "l1BlobBaseFee": "0x1",
      "l1BlobBaseFeeScalar": "0xa118b",
      "l1Fee": "0x1153d7141b",
      "l1GasPrice": "0x9d613166e",
      "l1GasUsed": "0x640"
    },
    {
      "status": "0x1",
      "cumulativeGasUsed": "0x27ffaa",
      "logs": [
        {
          "address": "0x08fe0efec67f5679bbd89961ee0d05c3d5eb90ea",
          "topics": [
            "0x2f8788117e7eff1d82e926ec794901d17c78024a50270940304540a733656f0d",
            "0x65d7a28e3265b37a6474929f336521b332c1681b933f6cb9f3376673440d862a",
            "0x000000000000000000000000ad5833fe40e01c1b9997746aa47d7cfa8bb01e72",
            "0x00000000000000000000000019173489fa86e042f323546174e74d791a36635e"
          ],
          "data": "0x",
          "blockHash": "0xba4e96d1d57f398c1706de62914f26539a9358de5f662b4d5bfb631fc395460a",
          "blockNumber": "0x1288207",
          "transactionHash": "0x9d791d874357da5f818637f355ba2c84ae4d27576c17a59e5ab7e77e6fa1c06d",
          "transactionIndex": "0x11",
          "logIndex": "0x30",
          "removed": false
        }
      ],
      "logsBloom": "0x00000004000000000000000000000000000000000000000000000000000000000000000000000000000000000000000008000000000080000008000000000000000000000000000000000000000000000000000000000000000000000000000000000000000000000000000000000000000000000000000000000000000000000000008000000000000000000000008000020000000000000000000000000040000000010000000000000000000000800000000000000000001000000000000000000000000000000000000000000000000000000000000100002000000000000000000000000000000000000000000000000400000000000000000000800000",
      "type": "0x2",
      "transactionHash": "0x9d791d874357da5f818637f355ba2c84ae4d27576c17a59e5ab7e77e6fa1c06d",
      "transactionIndex": "0x11",
      "blockHash": "0xba4e96d1d57f398c1706de62914f26539a9358de5f662b4d5bfb631fc395460a",
      "blockNumber": "0x1288207",
      "gasUsed": "0xc90e",
      "effectiveGasPrice": "0xc863",
      "from": "0x19173489fa86e042f323546174e74d791a36635e",
      "to": "0x08fe0efec67f5679bbd89961ee0d05c3d5eb90ea",
      "contractAddress": null,
      "l1BaseFeeScalar": "0x44d",
      "l1BlobBaseFee": "0x1",
      "l1BlobBaseFeeScalar": "0xa118b",
      "l1Fee": "0x12219797ce",
      "l1GasPrice": "0x9d613166e",
      "l1GasUsed": "0x68a"
    },
    {
      "status": "0x1",
      "cumulativeGasUsed": "0x260b85",
      "logs": [
        {
          "address": "0x08fe0efec67f5679bbd89961ee0d05c3d5eb90ea",
          "topics": [
            "0x2f8788117e7eff1d82e926ec794901d17c78024a50270940304540a733656f0d",
            "0xfbd454f36a7e1a388bd6fc3ab10d434aa4578f811acbbcf33afb1c697486313c",
            "0x000000000000000000000000e876b5ec9be3f67f3947d64c4ebc8ac1d005c90b",
            "0x00000000000000000000000019173489fa86e042f323546174e74d791a36635e"
          ],
          "data": "0x",
          "blockHash": "0xb691c05553537be9091f7086bd1cb880fe8f00a2b0359681a1b8519980a43487",
          "blockNumber": "0x1288208",
          "transactionHash": "0x4a68ffd6b44c5aae9c4353d031bc512c10023a95557dc2885b313f5f1fc1f0a9",
          "transactionIndex": "0x15",
          "logIndex": "0x29",
          "removed": false
        }
      ],
      "logsBloom": "0x00000004000000000000000000000000200000000000000000000000000000000000000000000000000000000000000000000000000080000008000000000000000000000000000000008000010000000000000000000000000000000000000000008000000000000000000000000000000000000000000000000000000000000000008000000000000000000000000080020000000000000000000000000000000000000000000000000000000000800000000000000000001000000000000000000000000000000000000000000004000000000000000100000000000000000000000000000000000000000000000000000000000000000000000000800000",
      "type": "0x2",
      "transactionHash": "0x4a68ffd6b44c5aae9c4353d031bc512c10023a95557dc2885b313f5f1fc1f0a9",
      "transactionIndex": "0x15",
      "blockHash": "0xb691c05553537be9091f7086bd1cb880fe8f00a2b0359681a1b8519980a43487",
      "blockNumber": "0x1288208",
      "gasUsed": "0xc90e",
      "effectiveGasPrice": "0xc863",
      "from": "0x19173489fa86e042f323546174e74d791a36635e",
      "to": "0x08fe0efec67f5679bbd89961ee0d05c3d5eb90ea",
      "contractAddress": null,
      "l1BaseFeeScalar": "0x44d",
      "l1BlobBaseFee": "0x1",
      "l1BlobBaseFeeScalar": "0xa118b",
      "l1Fee": "0x11e7267fe6",
      "l1GasPrice": "0x9b65ea8db",
      "l1GasUsed": "0x68a"
    },
    {
      "status": "0x1",
      "cumulativeGasUsed": "0x230661",
      "logs": [
        {
          "address": "0x08fe0efec67f5679bbd89961ee0d05c3d5eb90ea",
          "topics": [
            "0xf6391f5c32d9c69d2a47ea670b442974b53935d1edc7fd64eb21e047a839171b",
            "0x0000000000000000000000000000000000000000000000000000000000000000",
            "0x00000000000000000000000019173489fa86e042f323546174e74d791a36635e",
            "0x00000000000000000000000019173489fa86e042f323546174e74d791a36635e"
          ],
          "data": "0x",
          "blockHash": "0x90c2b31aa46ac9d7498675e63f39705619f0ac3aef6c9bf37a0ae9857d421b91",
          "blockNumber": "0x1288209",
          "transactionHash": "0x518ca9e8e91a6e1dd507e16b4819ce938bdbc25c861afbd58fd5cf54b627b051",
          "transactionIndex": "0x11",
          "logIndex": "0x2e",
          "removed": false
        }
      ],
      "logsBloom": "0x00000000000000000000000000000000000000000000000000000000000000000000000000000000000000000000000000200000000080000008000000000000000000000000000000000000000000000000000000000000000000000000000040000000020000000000000000000800000000000000000000000000000000000000008040000000000000000000000000020000000000000000000000000000000000000000000000000000000000800000000000000000000000000000000000000000000000000000000000000000000000000000000000000000000020000000000000000000000000000000000000000000000000000000000000800000",
      "type": "0x2",
      "transactionHash": "0x518ca9e8e91a6e1dd507e16b4819ce938bdbc25c861afbd58fd5cf54b627b051",
      "transactionIndex": "0x11",
      "blockHash": "0x90c2b31aa46ac9d7498675e63f39705619f0ac3aef6c9bf37a0ae9857d421b91",
      "blockNumber": "0x1288209",
      "gasUsed": "0x6a08",
      "effectiveGasPrice": "0xc863",
      "from": "0x19173489fa86e042f323546174e74d791a36635e",
      "to": "0x08fe0efec67f5679bbd89961ee0d05c3d5eb90ea",
      "contractAddress": null,
      "l1BaseFeeScalar": "0x44d",
      "l1BlobBaseFee": "0x1",
      "l1BlobBaseFeeScalar": "0xa118b",
      "l1Fee": "0x111bfd2dcf",
      "l1GasPrice": "0x9b65ea8db",
      "l1GasUsed": "0x640"
    },
    {
      "status": "0x1",
      "cumulativeGasUsed": "0x2cc07a",
      "logs": [
        {
          "address": "0xf59d326e64b325213feb803fa1fdb3f48c292fb6",
          "topics": [
            "0x2f8788117e7eff1d82e926ec794901d17c78024a50270940304540a733656f0d",
            "0x154c00819833dac601ee5ddded6fda79d9d8b506b911b3dbd54cdb95fe6c3686",
            "0x00000000000000000000000008fe0efec67f5679bbd89961ee0d05c3d5eb90ea",
            "0x00000000000000000000000019173489fa86e042f323546174e74d791a36635e"
          ],
          "data": "0x",
          "blockHash": "0xf13e42babf67210ee081839deacefa4e803482604eccfd47987079c974b1c220",
          "blockNumber": "0x128820a",
          "transactionHash": "0xe65e66ed972a995f996b0903a1bd0ba5ed5e11cd307e6302b4a5c37762996143",
          "transactionIndex": "0x16",
          "logIndex": "0x37",
          "removed": false
        }
      ],
      "logsBloom": "0x00000004000000000000000000000000000000000000000000000000000000000000000000000000000000000000000000000000000000000080000000000000000000000000000000000000000000000000000000000600000000000000800000000000000000000000000000000000000000000000000000000000000000010000000000000000000000000000000008020000000000000000000000000000000000000000000000000000000000800000000000000000001000000040000000000000000000000000000000000000000000000000000100000000000000000000000000000000000000000000000000010000000000000000000000800000",
      "type": "0x2",
      "transactionHash": "0xe65e66ed972a995f996b0903a1bd0ba5ed5e11cd307e6302b4a5c37762996143",
      "transactionIndex": "0x16",
      "blockHash": "0xf13e42babf67210ee081839deacefa4e803482604eccfd47987079c974b1c220",
      "blockNumber": "0x128820a",
      "gasUsed": "0xc919",
      "effectiveGasPrice": "0xc863",
      "from": "0x19173489fa86e042f323546174e74d791a36635e",
      "to": "0xf59d326e64b325213feb803fa1fdb3f48c292fb6",
      "contractAddress": null,
      "l1BaseFeeScalar": "0x44d",
      "l1BlobBaseFee": "0x1",
      "l1BlobBaseFeeScalar": "0xa118b",
      "l1Fee": "0x11e7267fe6",
      "l1GasPrice": "0x9b65ea8db",
      "l1GasUsed": "0x68a"
    },
    {
      "status": "0x1",
      "cumulativeGasUsed": "0x2d37e8",
      "logs": [
        {
          "address": "0xf59d326e64b325213feb803fa1fdb3f48c292fb6",
          "topics": [
            "0xf6391f5c32d9c69d2a47ea670b442974b53935d1edc7fd64eb21e047a839171b",
            "0x0000000000000000000000000000000000000000000000000000000000000000",
            "0x00000000000000000000000019173489fa86e042f323546174e74d791a36635e",
            "0x00000000000000000000000019173489fa86e042f323546174e74d791a36635e"
          ],
          "data": "0x",
          "blockHash": "0x350a9c6e3e80cc5c9a4a7014eb2af6760c9321c5e3ef610098d05ba7139a08ed",
          "blockNumber": "0x128820b",
          "transactionHash": "0x234b709b5667e50a9a40ec5eb9f0f1c3fad75ad7b38d1e985c451b7778db433e",
          "transactionIndex": "0xe",
          "logIndex": "0x23",
          "removed": false
        }
      ],
      "logsBloom": "0x00000000000000000000000000000000000000000000000000000000000000000000000000000000000000000000000000200000000000000000000000000000000000000000000000000000000000000000000000000400000000000000800040000000020000000000000000000800000000000000000000000000000000000000000040000000000000000000000000020000000000000000000000000000000000000000000000000000000000800000000000000000000000000040000000000000000000000000000000000000000000000000000000000000000020000000000000000000000000000000000000000000000000000000000000800000",
      "type": "0x2",
      "transactionHash": "0x234b709b5667e50a9a40ec5eb9f0f1c3fad75ad7b38d1e985c451b7778db433e",
      "transactionIndex": "0xe",
      "blockHash": "0x350a9c6e3e80cc5c9a4a7014eb2af6760c9321c5e3ef610098d05ba7139a08ed",
      "blockNumber": "0x128820b",
      "gasUsed": "0x604b",
      "effectiveGasPrice": "0xc863",
      "from": "0x19173489fa86e042f323546174e74d791a36635e",
      "to": "0xf59d326e64b325213feb803fa1fdb3f48c292fb6",
      "contractAddress": null,
      "l1BaseFeeScalar": "0x44d",
      "l1BlobBaseFee": "0x1",
      "l1BlobBaseFeeScalar": "0xa118b",
      "l1Fee": "0x111bfd2dcf",
      "l1GasPrice": "0x9b65ea8db",
      "l1GasUsed": "0x640"
    },
    {
      "status": "0x1",
      "cumulativeGasUsed": "0x46ea15",
      "logs": [
        {
          "address": "0x9e3ca1edb50439a1d3fd4bce071fa50cb48c7a1b",
          "topics": [
            "0x8c5be1e5ebec7d5bd14f71427d1e84f3dd0314c0f7b2291e5b200ac8c7c3b925",
            "0x000000000000000000000000e876b5ec9be3f67f3947d64c4ebc8ac1d005c90b",
            "0x00000000000000000000000008fe0efec67f5679bbd89961ee0d05c3d5eb90ea"
          ],
          "data": "0xffffffffffffffffffffffffffffffffffffffffffffffffffffffffffffffff",
          "blockHash": "0x92c9a093ef56efc555a104d1b275788385f3e87fa3638eba9fbecaab2613b266",
          "blockNumber": "0x128820c",
          "transactionHash": "0x9b67c32da249555fc96f6a9b4affe823226f64a969936ff1bc766b4e00f1e3ad",
          "transactionIndex": "0x13",
          "logIndex": "0x1e",
          "removed": false
        }
      ],
      "logsBloom": "0x00000000010000000000000000000000200000000000000000000000000000000000000000000000000000000000000000000000000000000000000000200000000000000000000000000000010000000000000000000200000000000000000000008000000000000000000000000000000000000000000000000000000000000002000000000000000000000000000008000000000000000000000000000000020000000000000000000000000000800000000000000000000000000000000000000000000000000000000000000000000000000000000000000000000000000010000000040000000000000000000000000000000000000000000000000000",
      "type": "0x2",
      "transactionHash": "0x9b67c32da249555fc96f6a9b4affe823226f64a969936ff1bc766b4e00f1e3ad",
      "transactionIndex": "0x13",
      "blockHash": "0x92c9a093ef56efc555a104d1b275788385f3e87fa3638eba9fbecaab2613b266",
      "blockNumber": "0x128820c",
      "gasUsed": "0xb631",
      "effectiveGasPrice": "0xc863",
      "from": "0xe876b5ec9be3f67f3947d64c4ebc8ac1d005c90b",
      "to": "0x9e3ca1edb50439a1d3fd4bce071fa50cb48c7a1b",
      "contractAddress": null,
      "l1BaseFeeScalar": "0x44d",
      "l1BlobBaseFee": "0x1",
      "l1BlobBaseFeeScalar": "0xa118b",
      "l1Fee": "0x111bfd2dcf",
      "l1GasPrice": "0x9b65ea8db",
      "l1GasUsed": "0x640"
    },
    {
      "status": "0x1",
      "cumulativeGasUsed": "0x345f87",
      "logs": [
        {
          "address": "0xf59d326e64b325213feb803fa1fdb3f48c292fb6",
          "topics": [
            "0x17307eab39ab6107e8899845ad3d59bd9653f200f220920489ca2b5937696c31",
            "0x000000000000000000000000e876b5ec9be3f67f3947d64c4ebc8ac1d005c90b",
            "0x00000000000000000000000008fe0efec67f5679bbd89961ee0d05c3d5eb90ea"
          ],
          "data": "0x0000000000000000000000000000000000000000000000000000000000000001",
          "blockHash": "0x27c4130bf0d1c645ba333ed70780b145ac18565397bff4e1282bfe6b7f4e8efe",
          "blockNumber": "0x128820e",
          "transactionHash": "0x0dc54693face32ad153a94d0efef021b70a45f12b2d4e697faaed56ffc5482df",
          "transactionIndex": "0x15",
          "logIndex": "0x33",
          "removed": false
        }
      ],
      "logsBloom": "0x00000000000000000000000000000000200000000000000000000000000000000000000000000000000000000000000000000000000000000000000000000000000000000000000000000000010000000000000000000600000000000000800002008000000000000000000000000000000000000000000000000000000000000000000000000000000000000000000008000000000000000000000000000000000000000000000000000000000000800000000000000000000000000040000000000000000000000000000000000000000000000000000000000000000000000000200800000000000000000000000000000000000000000000000000000000",
      "type": "0x2",
      "transactionHash": "0x0dc54693face32ad153a94d0efef021b70a45f12b2d4e697faaed56ffc5482df",
      "transactionIndex": "0x15",
      "blockHash": "0x27c4130bf0d1c645ba333ed70780b145ac18565397bff4e1282bfe6b7f4e8efe",
      "blockNumber": "0x128820e",
      "gasUsed": "0xb460",
      "effectiveGasPrice": "0xc863",
      "from": "0xe876b5ec9be3f67f3947d64c4ebc8ac1d005c90b",
      "to": "0xf59d326e64b325213feb803fa1fdb3f48c292fb6",
      "contractAddress": null,
      "l1BaseFeeScalar": "0x44d",
      "l1BlobBaseFee": "0x1",
      "l1BlobBaseFeeScalar": "0xa118b",
      "l1Fee": "0x111bfd2dcf",
      "l1GasPrice": "0x9b65ea8db",
      "l1GasUsed": "0x640"
    }
  ],
  "libraries": [],
  "pending": [],
  "returns": {},
  "timestamp": 1734632291,
  "chain": 84532,
  "commit": "ff958f9"
}