{
  "transactions": [
    {
      "hash": "0x48268df1918976c23cdefb036ef11c7e5b87bf0f87d7848f282ac1cfc7c3144a",
      "transactionType": "CREATE",
      "contractName": "DistributionManager",
      "contractAddress": "0x4aa652243fdc4612c6bf07c4fdf4a96e10b81196",
      "function": null,
      "arguments": [
        "0x9E3CA1EdB50439a1d3fD4Bce071fA50cB48C7A1b",
        "0xa45E06d31D1ED8A0C9471a59665f38A78E79d480"
      ],
      "transaction": {
        "from": "0x19173489fa86e042f323546174e74d791a36635e",
        "gas": "0x108ab1",
        "value": "0x0",
        "input": "0x60c060405234801561001057600080fd5b50604051610f17380380610f1783398101604081905261002f91610127565b6001805460ff191690556001600160a01b03828116608052811660a05261005760003361005f565b50505061015a565b6000828152602081815260408083206001600160a01b038516845290915281205460ff16610101576000838152602081815260408083206001600160a01b03861684529091529020805460ff191660011790556100b93390565b6001600160a01b0316826001600160a01b0316847f2f8788117e7eff1d82e926ec794901d17c78024a50270940304540a733656f0d60405160405180910390a4506001610105565b5060005b92915050565b80516001600160a01b038116811461012257600080fd5b919050565b6000806040838503121561013a57600080fd5b6101438361010b565b91506101516020840161010b565b90509250929050565b60805160a051610d8a61018d6000396000818161020c01526106720152600081816102b501526105bb0152610d8a6000f3fe6080604052600436106100f35760003560e01c80638456cb591161008a578063ba5a7be411610059578063ba5a7be4146102a3578063d547741f146102d7578063e63ab1e9146102f7578063f0bd87cc1461032b57600080fd5b80638456cb591461024657806391d148541461025b578063a217fddf1461027b578063a3d635b91461029057600080fd5b806336568abe116100c657806336568abe146101ad5780633f4ba83a146101cd5780635c975abb146101e25780636e14f193146101fa57600080fd5b806301ffc9a7146100f857806314a8ad541461012d578063248a9ca31461014d5780632f2ff15d1461018b575b600080fd5b34801561010457600080fd5b50610118610113366004610a41565b61035f565b60405190151581526020015b60405180910390f35b34801561013957600080fd5b50610118610148366004610b29565b610396565b34801561015957600080fd5b5061017d610168366004610b66565b60009081526020819052604090206001015490565b604051908152602001610124565b34801561019757600080fd5b506101ab6101a6366004610b9b565b6103c1565b005b3480156101b957600080fd5b506101ab6101c8366004610b9b565b6103ec565b3480156101d957600080fd5b506101ab610424565b3480156101ee57600080fd5b5060015460ff16610118565b34801561020657600080fd5b5061022e7f000000000000000000000000000000000000000000000000000000000000000081565b6040516001600160a01b039091168152602001610124565b34801561025257600080fd5b506101ab610459565b34801561026757600080fd5b50610118610276366004610b9b565b61048b565b34801561028757600080fd5b5061017d600081565b6101ab61029e366004610bc7565b6104b4565b3480156102af57600080fd5b5061022e7f000000000000000000000000000000000000000000000000000000000000000081565b3480156102e357600080fd5b506101ab6102f2366004610b9b565b610768565b34801561030357600080fd5b5061017d7f65d7a28e3265b37a6474929f336521b332c1681b933f6cb9f3376673440d862a81565b34801561033757600080fd5b5061017d7ffbd454f36a7e1a388bd6fc3ab10d434aa4578f811acbbcf33afb1c697486313c81565b60006001600160e01b03198216637965db0b60e01b148061039057506301ffc9a760e01b6001600160e01b03198316145b92915050565b60006002826040516103a89190610ccd565b9081526040519081900360200190205460ff1692915050565b6000828152602081905260409020600101546103dc8161078d565b6103e68383610797565b50505050565b6001600160a01b03811633146104155760405163334bd91960e11b815260040160405180910390fd5b61041f8282610829565b505050565b7f65d7a28e3265b37a6474929f336521b332c1681b933f6cb9f3376673440d862a61044e8161078d565b610456610894565b50565b7f65d7a28e3265b37a6474929f336521b332c1681b933f6cb9f3376673440d862a6104838161078d565b6104566108e6565b6000918252602082815260408084206001600160a01b0393909316845291905290205460ff1690565b7ffbd454f36a7e1a388bd6fc3ab10d434aa4578f811acbbcf33afb1c697486313c6104de8161078d565b6104e6610921565b6104ef85610947565b34156105ab576000846001600160a01b03163460405160006040518083038185875af1925050503d8060008114610542576040519150601f19603f3d011682016040523d82523d6000602084013e610547565b606091505b50509050806105a95760405162461bcd60e51b8152602060048201526024808201527f446973747269627574696f6e4d616e616765723a205472616e736665722066616044820152631a5b195960e21b60648201526084015b60405180910390fd5b505b821561065c576001600160a01b037f0000000000000000000000000000000000000000000000000000000000000000166323b872dd336040516001600160e01b031960e084901b1681526001600160a01b0391821660048201529087166024820152604481018690526064016020604051808303816000875af1158015610636573d6000803e3d6000fd5b505050506040513d601f19601f8201168201806040525081019061065a9190610ce9565b505b60005b8251811015610729576001600160a01b037f0000000000000000000000000000000000000000000000000000000000000000166342842e0e33878685815181106106ab576106ab610d0b565b60209081029190910101516040516001600160e01b031960e086901b1681526001600160a01b0393841660048201529290911660248301526044820152606401600060405180830381600087803b15801561070557600080fd5b505af1158015610719573d6000803e3d6000fd5b50506001909201915061065f9050565b507f040e04ba083fcc5d428735784fbd0db4fd9a534eb5f80f6afd02a8090329de61856040516107599190610d21565b60405180910390a15050505050565b6000828152602081905260409020600101546107838161078d565b6103e68383610829565b61045681336109e1565b60006107a3838361048b565b610821576000838152602081815260408083206001600160a01b03861684529091529020805460ff191660011790556107d93390565b6001600160a01b0316826001600160a01b0316847f2f8788117e7eff1d82e926ec794901d17c78024a50270940304540a733656f0d60405160405180910390a4506001610390565b506000610390565b6000610835838361048b565b15610821576000838152602081815260408083206001600160a01b0386168085529252808320805460ff1916905551339286917ff6391f5c32d9c69d2a47ea670b442974b53935d1edc7fd64eb21e047a839171b9190a4506001610390565b61089c610a1e565b6001805460ff191690557f5db9ee0a495bf2e6ff9c91a7834c1ba4fdd244a5e8aa4e537bd38aeae4b073aa335b6040516001600160a01b03909116815260200160405180910390a1565b6108ee610921565b6001805460ff1916811790557f62e78cea01bee320cd4e420270b5ea74000d11b0c9f74754ebdbfc544b05a258336108c9565b60015460ff16156109455760405163d93c066560e01b815260040160405180910390fd5b565b61095081610396565b156109ac5760405162461bcd60e51b815260206004820152602660248201527f446973747269627574696f6e4d616e616765723a20554944206d75737420626560448201526510333932b29760d11b60648201526084016105a0565b60016002826040516109be9190610ccd565b908152604051908190036020019020805491151560ff1990921691909117905550565b6109eb828261048b565b610a1a5760405163e2517d3f60e01b81526001600160a01b0382166004820152602481018390526044016105a0565b5050565b60015460ff1661094557604051638dfc202b60e01b815260040160405180910390fd5b600060208284031215610a5357600080fd5b81356001600160e01b031981168114610a6b57600080fd5b9392505050565b634e487b7160e01b600052604160045260246000fd5b604051601f8201601f1916810167ffffffffffffffff81118282101715610ab157610ab1610a72565b604052919050565b600082601f830112610aca57600080fd5b813567ffffffffffffffff811115610ae457610ae4610a72565b610af7601f8201601f1916602001610a88565b818152846020838601011115610b0c57600080fd5b816020850160208301376000918101602001919091529392505050565b600060208284031215610b3b57600080fd5b813567ffffffffffffffff811115610b5257600080fd5b610b5e84828501610ab9565b949350505050565b600060208284031215610b7857600080fd5b5035919050565b80356001600160a01b0381168114610b9657600080fd5b919050565b60008060408385031215610bae57600080fd5b82359150610bbe60208401610b7f565b90509250929050565b60008060008060808587031215610bdd57600080fd5b843567ffffffffffffffff80821115610bf557600080fd5b610c0188838901610ab9565b955060209150610c12828801610b7f565b945060408701359350606087013581811115610c2d57600080fd5b8701601f81018913610c3e57600080fd5b803582811115610c5057610c50610a72565b8060051b9250610c61848401610a88565b818152928201840192848101908b851115610c7b57600080fd5b928501925b84841015610c9957833582529285019290850190610c80565b989b979a50959850505050505050565b60005b83811015610cc4578181015183820152602001610cac565b50506000910152565b60008251610cdf818460208701610ca9565b9190910192915050565b600060208284031215610cfb57600080fd5b81518015158114610a6b57600080fd5b634e487b7160e01b600052603260045260246000fd5b6020815260008251806020840152610d40816040850160208701610ca9565b601f01601f1916919091016040019291505056fea264697066735822122063f09c24b5dea47be1a22f1eb89039a3b77d578bc6e87593af5884d8ecc4e6ce64736f6c634300081900330000000000000000000000009e3ca1edb50439a1d3fd4bce071fa50cb48c7a1b000000000000000000000000a45e06d31d1ed8a0c9471a59665f38a78e79d480",
        "nonce": "0xf",
        "chainId": "0x14a34"
      },
      "additionalContracts": [],
      "isFixedGasLimit": false
    },
    {
      "hash": "0x42eb58b77550bff13e14761917bdfcd36b96d9cbfe39b52983efccf2ab12bcc6",
      "transactionType": "CALL",
      "contractName": "DistributionManager",
      "contractAddress": "0x4aa652243fdc4612c6bf07c4fdf4a96e10b81196",
      "function": "grantRole(bytes32,address)",
      "arguments": [
        "0x0000000000000000000000000000000000000000000000000000000000000000",
        "0xAD5833fe40E01c1b9997746Aa47D7cFa8bb01E72"
      ],
      "transaction": {
        "from": "0x19173489fa86e042f323546174e74d791a36635e",
        "to": "0x4aa652243fdc4612c6bf07c4fdf4a96e10b81196",
        "gas": "0x1243b",
        "value": "0x0",
        "input": "0x2f2ff15d0000000000000000000000000000000000000000000000000000000000000000000000000000000000000000ad5833fe40e01c1b9997746aa47d7cfa8bb01e72",
        "nonce": "0x10",
        "chainId": "0x14a34"
      },
      "additionalContracts": [],
      "isFixedGasLimit": false
    },
    {
      "hash": "0xec28402a3dae775218d291839f24b569563345629d4a8bc4461a55ec5aded647",
      "transactionType": "CALL",
      "contractName": "DistributionManager",
      "contractAddress": "0x4aa652243fdc4612c6bf07c4fdf4a96e10b81196",
      "function": "grantRole(bytes32,address)",
      "arguments": [
        "0x65d7a28e3265b37a6474929f336521b332c1681b933f6cb9f3376673440d862a",
        "0xAD5833fe40E01c1b9997746Aa47D7cFa8bb01E72"
      ],
      "transaction": {
        "from": "0x19173489fa86e042f323546174e74d791a36635e",
        "to": "0x4aa652243fdc4612c6bf07c4fdf4a96e10b81196",
        "gas": "0x1266c",
        "value": "0x0",
        "input": "0x2f2ff15d65d7a28e3265b37a6474929f336521b332c1681b933f6cb9f3376673440d862a000000000000000000000000ad5833fe40e01c1b9997746aa47d7cfa8bb01e72",
        "nonce": "0x11",
        "chainId": "0x14a34"
      },
      "additionalContracts": [],
      "isFixedGasLimit": false
    },
    {
      "hash": "0x4c01405a9e9edd8e3ab17481c076c4063889ec51878a9af4bd2bcb18a2a4edf6",
      "transactionType": "CALL",
      "contractName": "DistributionManager",
      "contractAddress": "0x4aa652243fdc4612c6bf07c4fdf4a96e10b81196",
      "function": "grantRole(bytes32,address)",
      "arguments": [
        "0xfbd454f36a7e1a388bd6fc3ab10d434aa4578f811acbbcf33afb1c697486313c",
        "0xe876b5EC9be3f67F3947D64c4Ebc8ac1D005C90B"
      ],
      "transaction": {
        "from": "0x19173489fa86e042f323546174e74d791a36635e",
        "to": "0x4aa652243fdc4612c6bf07c4fdf4a96e10b81196",
        "gas": "0x1266c",
        "value": "0x0",
        "input": "0x2f2ff15dfbd454f36a7e1a388bd6fc3ab10d434aa4578f811acbbcf33afb1c697486313c000000000000000000000000e876b5ec9be3f67f3947d64c4ebc8ac1d005c90b",
        "nonce": "0x12",
        "chainId": "0x14a34"
      },
      "additionalContracts": [],
      "isFixedGasLimit": false
    },
    {
      "hash": "0xb1ab3a384ef674ebebde15db71a65b9df8cfc30532155e48f92d710fa998a116",
      "transactionType": "CALL",
      "contractName": "DistributionManager",
      "contractAddress": "0x4aa652243fdc4612c6bf07c4fdf4a96e10b81196",
      "function": "revokeRole(bytes32,address)",
      "arguments": [
        "0x0000000000000000000000000000000000000000000000000000000000000000",
        "0x19173489Fa86e042F323546174e74D791A36635E"
      ],
      "transaction": {
        "from": "0x19173489fa86e042f323546174e74d791a36635e",
        "to": "0x4aa652243fdc4612c6bf07c4fdf4a96e10b81196",
        "gas": "0x9274",
        "value": "0x0",
        "input": "0xd547741f000000000000000000000000000000000000000000000000000000000000000000000000000000000000000019173489fa86e042f323546174e74d791a36635e",
        "nonce": "0x13",
        "chainId": "0x14a34"
      },
      "additionalContracts": [],
      "isFixedGasLimit": false
    },
    {
      "hash": "0xb7939286c8c95deb97143e189542b2a44d1a1e40ab8b7cd48b6148e30f8d9dd3",
      "transactionType": "CALL",
      "contractName": null,
      "contractAddress": "0x9e3ca1edb50439a1d3fd4bce071fa50cb48c7a1b",
      "function": "approve(address,uint256)",
      "arguments": [
        "0x4Aa652243FDC4612C6Bf07c4FDF4a96E10b81196",
        "115792089237316195423570985008687907853269984665640564039457584007913129639935"
      ],
      "transaction": {
        "from": "0xe876b5ec9be3f67f3947d64c4ebc8ac1d005c90b",
        "to": "0x9e3ca1edb50439a1d3fd4bce071fa50cb48c7a1b",
        "gas": "0x10a74",
        "value": "0x0",
        "input": "0x095ea7b30000000000000000000000004aa652243fdc4612c6bf07c4fdf4a96e10b81196ffffffffffffffffffffffffffffffffffffffffffffffffffffffffffffffff",
        "nonce": "0x0",
        "chainId": "0x14a34"
      },
      "additionalContracts": [],
      "isFixedGasLimit": false
    },
    {
      "hash": "0x830baffbdc0998ca192ae654444599a8241debab99c9208c0ff6ed749b404ec2",
      "transactionType": "CALL",
      "contractName": null,
      "contractAddress": "0xa45e06d31d1ed8a0c9471a59665f38a78e79d480",
      "function": "setApprovalForAll(address,bool)",
      "arguments": [
        "0x4Aa652243FDC4612C6Bf07c4FDF4a96E10b81196",
        "true"
      ],
      "transaction": {
        "from": "0xe876b5ec9be3f67f3947d64c4ebc8ac1d005c90b",
        "to": "0xa45e06d31d1ed8a0c9471a59665f38a78e79d480",
        "gas": "0xf924",
        "value": "0x0",
        "input": "0xa22cb4650000000000000000000000004aa652243fdc4612c6bf07c4fdf4a96e10b811960000000000000000000000000000000000000000000000000000000000000001",
        "nonce": "0x1",
        "chainId": "0x14a34"
      },
      "additionalContracts": [],
      "isFixedGasLimit": false
    }
  ],
  "receipts": [
    {
      "status": "0x1",
      "cumulativeGasUsed": "0x3016d4",
      "logs": [
        {
          "address": "0x4aa652243fdc4612c6bf07c4fdf4a96e10b81196",
          "topics": [
            "0x2f8788117e7eff1d82e926ec794901d17c78024a50270940304540a733656f0d",
            "0x0000000000000000000000000000000000000000000000000000000000000000",
            "0x00000000000000000000000019173489fa86e042f323546174e74d791a36635e",
            "0x00000000000000000000000019173489fa86e042f323546174e74d791a36635e"
          ],
          "data": "0x",
          "blockHash": "0x952236f39b571444c86394d68019bd430f9497f86af883bd4677512fe1d1b718",
          "blockNumber": "0x11416f5",
          "transactionHash": "0x48268df1918976c23cdefb036ef11c7e5b87bf0f87d7848f282ac1cfc7c3144a",
          "transactionIndex": "0xd",
          "logIndex": "0x1d",
          "removed": false
        }
      ],
      "logsBloom": "0x00000004000000000000000000000000000000000000000000000000000000000000000000000000000000000000000000000000000000000000000000000000000000000000000000000000000000000000000000000000000000000000000000000000020000000010000000000800000000000000000000000000000000000000000000000000000000000000000000020000000000000000000000000000000000000000000000000000000000800000000000000000001000000000000000000000000000000000000000001000000000000000000100000000000020000000000000000000000000000000800000000000000000000000000000800000",
      "type": "0x2",
      "transactionHash": "0x48268df1918976c23cdefb036ef11c7e5b87bf0f87d7848f282ac1cfc7c3144a",
      "transactionIndex": "0xd",
      "blockHash": "0x952236f39b571444c86394d68019bd430f9497f86af883bd4677512fe1d1b718",
      "blockNumber": "0x11416f5",
      "gasUsed": "0xcba6b",
      "effectiveGasPrice": "0xc5d7",
      "from": "0x19173489fa86e042f323546174e74d791a36635e",
      "to": null,
      "contractAddress": "0x4aa652243fdc4612c6bf07c4fdf4a96e10b81196",
      "l1BaseFeeScalar": "0x44d",
      "l1BlobBaseFee": "0x2",
      "l1BlobBaseFeeScalar": "0xa118b",
      "l1Fee": "0x2a926431",
      "l1GasPrice": "0x10ca339",
      "l1GasUsed": "0x8fef"
    },
    {
      "status": "0x1",
      "cumulativeGasUsed": "0xdc24b",
      "logs": [
        {
          "address": "0x4aa652243fdc4612c6bf07c4fdf4a96e10b81196",
          "topics": [
            "0x2f8788117e7eff1d82e926ec794901d17c78024a50270940304540a733656f0d",
            "0x0000000000000000000000000000000000000000000000000000000000000000",
            "0x000000000000000000000000ad5833fe40e01c1b9997746aa47d7cfa8bb01e72",
            "0x00000000000000000000000019173489fa86e042f323546174e74d791a36635e"
          ],
          "data": "0x",
          "blockHash": "0x3a3fdd9f9d9460a04b81e233ac6638d8f201d372818ff1bac4e225dd67deb869",
          "blockNumber": "0x11416f7",
          "transactionHash": "0x42eb58b77550bff13e14761917bdfcd36b96d9cbfe39b52983efccf2ab12bcc6",
          "transactionIndex": "0x5",
          "logIndex": "0x6",
          "removed": false
        }
      ],
      "logsBloom": "0x00000004000000000000000000000000000000000000000000000000000000000000000000000000000000000000000008000000000000000000000000000000000000000000000000000000000000000000000000000000000000000000000000000000020000000010000000000800000000000000000000000000000000000000000000000000000000000000000000020000000000000000000000000040000000010000000000000000000000800000000000000000001000000000000000000000000000000000000000001000000000000000000100000000000020000000000000000000000000000000800000000000000000000000000000800000",
      "type": "0x2",
      "transactionHash": "0x42eb58b77550bff13e14761917bdfcd36b96d9cbfe39b52983efccf2ab12bcc6",
      "transactionIndex": "0x5",
      "blockHash": "0x3a3fdd9f9d9460a04b81e233ac6638d8f201d372818ff1bac4e225dd67deb869",
      "blockNumber": "0x11416f7",
      "gasUsed": "0xc7d1",
      "effectiveGasPrice": "0xc5d7",
      "from": "0x19173489fa86e042f323546174e74d791a36635e",
      "to": "0x4aa652243fdc4612c6bf07c4fdf4a96e10b81196",
      "contractAddress": null,
      "l1BaseFeeScalar": "0x44d",
      "l1BlobBaseFee": "0x2",
      "l1BlobBaseFeeScalar": "0xa118b",
      "l1Fee": "0x1d93be6",
      "l1GasPrice": "0x10ca339",
      "l1GasUsed": "0x640"
    },
    {
      "status": "0x1",
      "cumulativeGasUsed": "0x99996",
      "logs": [
        {
          "address": "0x4aa652243fdc4612c6bf07c4fdf4a96e10b81196",
          "topics": [
            "0x2f8788117e7eff1d82e926ec794901d17c78024a50270940304540a733656f0d",
            "0x65d7a28e3265b37a6474929f336521b332c1681b933f6cb9f3376673440d862a",
            "0x000000000000000000000000ad5833fe40e01c1b9997746aa47d7cfa8bb01e72",
            "0x00000000000000000000000019173489fa86e042f323546174e74d791a36635e"
          ],
          "data": "0x",
          "blockHash": "0xc3135fdcff6f2c6acb43d26e27927dc312409bd6a8a243b49dd5742bedb0c324",
          "blockNumber": "0x11416f9",
          "transactionHash": "0xec28402a3dae775218d291839f24b569563345629d4a8bc4461a55ec5aded647",
          "transactionIndex": "0x7",
          "logIndex": "0x8",
          "removed": false
        }
      ],
      "logsBloom": "0x00000004000000000000000000000000000000000000000000000000000000000000000000000000000000000000000008000000000000000000000000000000000000000000000000000000000000000000000000000000000000000000000000000000000000000010000000000000000000000000000000000000000000000000000000000000000000000000008000020000000000000000000000000040000000010000000000000000000000800000000000000000001000000000000000000000000000000000000000001000000000000000000100002000000000000000000000000000000000000000800000000400000000000000000000800000",
      "type": "0x2",
      "transactionHash": "0xec28402a3dae775218d291839f24b569563345629d4a8bc4461a55ec5aded647",
      "transactionIndex": "0x7",
      "blockHash": "0xc3135fdcff6f2c6acb43d26e27927dc312409bd6a8a243b49dd5742bedb0c324",
      "blockNumber": "0x11416f9",
      "gasUsed": "0xc951",
      "effectiveGasPrice": "0xc5d7",
      "from": "0x19173489fa86e042f323546174e74d791a36635e",
      "to": "0x4aa652243fdc4612c6bf07c4fdf4a96e10b81196",
      "contractAddress": null,
      "l1BaseFeeScalar": "0x44d",
      "l1BlobBaseFee": "0x2",
      "l1BlobBaseFeeScalar": "0xa118b",
      "l1Fee": "0x1ef2f39",
      "l1GasPrice": "0x10ca339",
      "l1GasUsed": "0x68a"
    },
    {
      "status": "0x1",
      "cumulativeGasUsed": "0x129770",
      "logs": [
        {
          "address": "0x4aa652243fdc4612c6bf07c4fdf4a96e10b81196",
          "topics": [
            "0x2f8788117e7eff1d82e926ec794901d17c78024a50270940304540a733656f0d",
            "0xfbd454f36a7e1a388bd6fc3ab10d434aa4578f811acbbcf33afb1c697486313c",
            "0x000000000000000000000000e876b5ec9be3f67f3947d64c4ebc8ac1d005c90b",
            "0x00000000000000000000000019173489fa86e042f323546174e74d791a36635e"
          ],
          "data": "0x",
          "blockHash": "0xe80ef8f57e099d5c09d72c004d8fdd8547db8ac53889c5444ff63a3037a906fd",
          "blockNumber": "0x11416fa",
          "transactionHash": "0x4c01405a9e9edd8e3ab17481c076c4063889ec51878a9af4bd2bcb18a2a4edf6",
          "transactionIndex": "0x5",
          "logIndex": "0x9",
          "removed": false
        }
      ],
      "logsBloom": "0x00000004000000000000000000000000200000000000000000000000000000000000000000000000000000000000000000000000000000000000000000000000000000000000000000008000010000000000000000000000000000000000000000008000000000000010000000000000000000000000000000000000000000000000000000000000000000000000000080020000000000000000000000000000000000000000000000000000000000800000000000000000001000000000000000000000000000000000000000001004000000000000000100000000000000000000000000000000000000000000800000000000000000000000000000800000",
      "type": "0x2",
      "transactionHash": "0x4c01405a9e9edd8e3ab17481c076c4063889ec51878a9af4bd2bcb18a2a4edf6",
      "transactionIndex": "0x5",
      "blockHash": "0xe80ef8f57e099d5c09d72c004d8fdd8547db8ac53889c5444ff63a3037a906fd",
      "blockNumber": "0x11416fa",
      "gasUsed": "0xc951",
      "effectiveGasPrice": "0xc5d7",
      "from": "0x19173489fa86e042f323546174e74d791a36635e",
      "to": "0x4aa652243fdc4612c6bf07c4fdf4a96e10b81196",
      "contractAddress": null,
      "l1BaseFeeScalar": "0x44d",
      "l1BlobBaseFee": "0x2",
      "l1BlobBaseFeeScalar": "0xa118b",
      "l1Fee": "0x1ddadab",
      "l1GasPrice": "0x10323f8",
      "l1GasUsed": "0x68a"
    },
    {
      "status": "0x1",
      "cumulativeGasUsed": "0xcea6f",
      "logs": [
        {
          "address": "0x4aa652243fdc4612c6bf07c4fdf4a96e10b81196",
          "topics": [
            "0xf6391f5c32d9c69d2a47ea670b442974b53935d1edc7fd64eb21e047a839171b",
            "0x0000000000000000000000000000000000000000000000000000000000000000",
            "0x00000000000000000000000019173489fa86e042f323546174e74d791a36635e",
            "0x00000000000000000000000019173489fa86e042f323546174e74d791a36635e"
          ],
          "data": "0x",
          "blockHash": "0x5ded1ab37d88e0d3921850bc55c48f995287e9f16d4194f5fe5d298196ffdc9d",
          "blockNumber": "0x11416fc",
          "transactionHash": "0xb1ab3a384ef674ebebde15db71a65b9df8cfc30532155e48f92d710fa998a116",
          "transactionIndex": "0x5",
          "logIndex": "0x3",
          "removed": false
        }
      ],
      "logsBloom": "0x00000000000000000000000000000000000000000000000000000000000000000000000000000000000000000000000000200000000000000000000000000000000000000000000000000000000000000000000000000000000000000000000040000000020000000010000000000800000000000000000000000000000000000000000040000000000000000000000000020000000000000000000000000000000000000000000000000000000000800000000000000000000000000000000000000000000000000000000000001000000000000000000000000000000020000000000000000000000000000000800000000000000000000000000000800000",
      "type": "0x2",
      "transactionHash": "0xb1ab3a384ef674ebebde15db71a65b9df8cfc30532155e48f92d710fa998a116",
      "transactionIndex": "0x5",
      "blockHash": "0x5ded1ab37d88e0d3921850bc55c48f995287e9f16d4194f5fe5d298196ffdc9d",
      "blockNumber": "0x11416fc",
      "gasUsed": "0x6a08",
      "effectiveGasPrice": "0xc5d7",
      "from": "0x19173489fa86e042f323546174e74d791a36635e",
      "to": "0x4aa652243fdc4612c6bf07c4fdf4a96e10b81196",
      "contractAddress": null,
      "l1BaseFeeScalar": "0x44d",
      "l1BlobBaseFee": "0x2",
      "l1BlobBaseFeeScalar": "0xa118b",
      "l1Fee": "0x1c503c6",
      "l1GasPrice": "0x10128ea",
      "l1GasUsed": "0x640"
    },
    {
      "status": "0x1",
      "cumulativeGasUsed": "0xdb1fa",
      "logs": [
        {
          "address": "0x9e3ca1edb50439a1d3fd4bce071fa50cb48c7a1b",
          "topics": [
            "0x8c5be1e5ebec7d5bd14f71427d1e84f3dd0314c0f7b2291e5b200ac8c7c3b925",
            "0x000000000000000000000000e876b5ec9be3f67f3947d64c4ebc8ac1d005c90b",
            "0x0000000000000000000000004aa652243fdc4612c6bf07c4fdf4a96e10b81196"
          ],
          "data": "0xffffffffffffffffffffffffffffffffffffffffffffffffffffffffffffffff",
          "blockHash": "0xf50d1f2fe524485abf62860b2b47258ea79049135e99db619ca8de436d937b6f",
          "blockNumber": "0x11417ab",
          "transactionHash": "0xb7939286c8c95deb97143e189542b2a44d1a1e40ab8b7cd48b6148e30f8d9dd3",
          "transactionIndex": "0x5",
          "logIndex": "0x3",
          "removed": false
        }
      ],
      "logsBloom": "0x00000000010010000000000000000000200000000000000000000000000000000000000000000000000000000000000000000000000000000000000000200000000000000000000000000000010000000000000000000000000000000000000000008000000000000000000000000000000000000000000000000000000000000002040000000000000000000000000000000000000000000000000000000000020000000000000000000000000000000000000000000000000000000000000000000000000000000400000000000000000000000000000000000000000000000010000000040000000000000000000000000000000000000000000000000000",
      "type": "0x2",
      "transactionHash": "0xb7939286c8c95deb97143e189542b2a44d1a1e40ab8b7cd48b6148e30f8d9dd3",
      "transactionIndex": "0x5",
      "blockHash": "0xf50d1f2fe524485abf62860b2b47258ea79049135e99db619ca8de436d937b6f",
      "blockNumber": "0x11417ab",
      "gasUsed": "0xb631",
      "effectiveGasPrice": "0x312",
      "from": "0xe876b5ec9be3f67f3947d64c4ebc8ac1d005c90b",
      "to": "0x9e3ca1edb50439a1d3fd4bce071fa50cb48c7a1b",
      "contractAddress": null,
      "l1BaseFeeScalar": "0x44d",
      "l1BlobBaseFee": "0x1",
      "l1BlobBaseFeeScalar": "0xa118b",
      "l1Fee": "0xe90ed7",
      "l1GasPrice": "0x844c68",
      "l1GasUsed": "0x640"
    },
    {
      "status": "0x1",
      "cumulativeGasUsed": "0x9778f",
      "logs": [
        {
          "address": "0xa45e06d31d1ed8a0c9471a59665f38a78e79d480",
          "topics": [
            "0x17307eab39ab6107e8899845ad3d59bd9653f200f220920489ca2b5937696c31",
            "0x000000000000000000000000e876b5ec9be3f67f3947d64c4ebc8ac1d005c90b",
            "0x0000000000000000000000004aa652243fdc4612c6bf07c4fdf4a96e10b81196"
          ],
          "data": "0x0000000000000000000000000000000000000000000000000000000000000001",
          "blockHash": "0x4d99e51e41f3e5d5571330e1fd7cdedf6398ed312850d0947cbe866ba0f75c2a",
          "blockNumber": "0x11417ad",
          "transactionHash": "0x830baffbdc0998ca192ae654444599a8241debab99c9208c0ff6ed749b404ec2",
          "transactionIndex": "0x7",
          "logIndex": "0x4",
          "removed": false
        }
      ],
      "logsBloom": "0x00000000000010000000000000000000200000000000000000000000000000000000000000000000000000000000000000000000000000000000000000000000000000000000000000000000010000000000000000000000000000000000000002008000000000000000000000000000000000000400000000000000000000000000040000000000000000000000000000000000000000000000000000000000000200000000000000000000000000000000000000000000000000000000000000000000000000000400000000000000000000000000000000000000000200000000200800000000000000000000000000000000000000000000000000000000",
      "type": "0x2",
      "transactionHash": "0x830baffbdc0998ca192ae654444599a8241debab99c9208c0ff6ed749b404ec2",
      "transactionIndex": "0x7",
      "blockHash": "0x4d99e51e41f3e5d5571330e1fd7cdedf6398ed312850d0947cbe866ba0f75c2a",
      "blockNumber": "0x11417ad",
      "gasUsed": "0xb460",
      "effectiveGasPrice": "0x312",
      "from": "0xe876b5ec9be3f67f3947d64c4ebc8ac1d005c90b",
      "to": "0xa45e06d31d1ed8a0c9471a59665f38a78e79d480",
      "contractAddress": null,
      "l1BaseFeeScalar": "0x44d",
      "l1BlobBaseFee": "0x1",
      "l1BlobBaseFeeScalar": "0xa118b",
      "l1Fee": "0xe90ed7",
      "l1GasPrice": "0x844c68",
      "l1GasUsed": "0x640"
    }
  ],
  "libraries": [],
  "pending": [],
  "returns": {},
  "timestamp": 1731956307,
  "chain": 84532,
  "commit": "a2764de"
}